:020000040800F2
:10000000381D00209D010008D3190008D9160008EA
:10001000CF19000845100008BF3700080000000095
:10002000000000000000000000000000752600082D
:10003000B512000800000000FD1A0008352A00086B
:10004000B7010008B7010008B7010008B7010008B0
:10005000B7010008B7010008B7010008B7010008A0
:10006000B7010008B7010008B9120008B70100087D
:10007000B7010008B7010008B7010008B701000880
:10008000B7010008B7010008B7010008B701000870
:10009000B7010008B7010008B7010008D91200082D
:1000A000B7010008B7010008B7010008B701000850
:1000B000952B0008B52B0008B7010008B701000810
:1000C000B7010008B7010008B7010008B701000830
:1000D000B7010008E933000819340008413400086A
:1000E000B7010008B7010008B7010008B701000810
:1000F000B7010008B7010008B7010008B701000800
:10010000B7010008B7010008B7010008B7010008EF
:10011000B701000889320008B7010008B7010008DC
:10012000B7010008B7010008B7010008B7010008CF
:10013000B7010008B7010008B7010008B7010008BF
:10014000B7010008B7010008B7010008B7010008AF
:10015000B7010008B7010008B7010008853400089E
:10016000B7010008B7010008B7010008B70100088F
:10017000B7010008B7010008B7010008B70100087F
:10018000B7010008B7010008DFF80CD000F028FB29
:1001900000480047F1510008381D002006488047FC
:1001A00006480047FEE7FEE7FEE7FEE7FEE7FEE75C
:1001B000FEE7FEE7FEE7FEE72D2B000889010008B9
:1001C0002DE9F05F0546002092469B46884606468C
:1001D000814640241BE0284641464746224600F01F
:1001E0001BFA53465A46C01A914110D3114618467D
:1001F000224600F002FA2D1A67EB01084F4622460C
:100200000120002100F0F9F917EB00094E41201EF2
:10021000A4F10104DFDC484631462A464346BDE8E6
:10022000F09F40EA01039B0703D009E008C9121FB1
:1002300008C0042AFAD203E011F8013B00F8013BA0
:10024000521EF9D270472DE9FE4F804681EA030025
:10025000C00F0C46009021F0004123F00045B8EBA0
:100260000200A94105D24046214690461C460B4655
:10027000024623F00040104304D14046214603B01B
:10028000BDE8F08F270DC7F30A00C3F30A510290AF
:10029000401A0190402866DAC3F3130040F4801B33
:1002A0000098924620B10023D2EB030A63EB0B0BBC
:1002B00001985946C0F14002504600F09EF90646AA
:1002C0000D4650465946019A00F0B6F910EB080069
:1002D0006141002487EA115284EAE7731A433BD054
:1002E000009A3AB3019A012A4FEA075210DC001B28
:1002F00061EB02014FF0004202EA0752CDE90042F1
:10030000001C41F5801132462B4600F0EAF9B6E7B1
:10031000001B61EB0201001C41F5801300185B41DA
:100320002018A2F5001747EB030140EAD570B61973
:100330006D4111E06D084FEA360645EAC0754FEA97
:100340000752001B61EB0201001C41F580114908B6
:100350004FEA30000019514132462B4603B0BDE848
:10036000F04F00F0B1B90098012240000023D0EB1B
:10037000020263EBE073009821464FEAE074B8EBA9
:10038000000061EB0401E9E783F000435BE781F0E3
:10039000004158E72DE9FE4F81EA030404F00044D0
:1003A00021F0004100944FF0000B23F0004350EA8D
:1003B000010402D052EA030404D10020014603B034
:1003C000BDE8F08FC3F30A54C1F30A552C44A4F2DC
:1003D000F3340194A0FB0254C1F3130141F48011E2
:1003E000C3F3130343F4801301FB024400FB034EE9
:1003F000840A970A44EA815447EA8357A4FB0768B2
:1004000002958D0A05FB07854FEA932C04FB0C54DB
:100410002705029D4FEA065847EA1637B5EB08054F
:100420006EEB070C870E920E47EA811742EA8312A1
:10043000A7FB0201B6EB0B0164EB00042B0D43EAB2
:100440000C335E1844EB1C50DA465146E7FB0201C0
:10045000C5F313044FEA0B3343EA14534FEA043253
:10046000019C43EA0603A4F10C040294009CCDE92C
:1004700000B400F036F9A2E72DE9F04D81EA03045B
:1004800004F0004B21F0004514464FF0000A23F021
:10049000004150EA050220D054EA01021DD0C5F304
:1004A0000A570246C5F31303C1F31300C1F30A56FA
:1004B00040F4801543F48013A7EB0608101BD646C2
:1004C00008F2FD3873EB050002D308F1010801E0E2
:1004D00092185B41B8F1000F03DA00200146BDE835
:1004E000F08D00204FF48011064684460EE0171B65
:1004F00073EB050705D3121B63EB050306434CEAB8
:10050000010C49084FEA300092185B4150EA01079C
:10051000EDD152EA030012D082EA040083EA050119
:10052000084303D100224FF0004308E0101BAB4109
:1005300002D20122002302E06FF0010253101AEBF5
:1005400006004CEB085110EB0A0041EB0B01BDE833
:10055000F04D00F0B9B80EB540F2334102910021E0
:10056000CDE900110A460B4600F0BBF803B000BD10
:1005700000F0004230F000400AD0C10D01F560717A
:10058000C0F3160042EA0151C20840071143704708
:1005900000200146704701F0004330B421F00041D3
:1005A00050EA010206D00A0DA2F56072C1F31301F0
:1005B000002A02DC30BC00207047440F44EAC1042A
:1005C000C100E01830BC00EBC25000F047B830B5B5
:1005D0000B46014600202022012409E021FA02F501
:1005E0009D4205D303FA02F5491B04FA02F528449B
:1005F000151EA2F10102F1DC30BD202A04DB203AF5
:1006000000FA02F1002070479140C2F1200320FA65
:1006100003F3194390407047202A04DB203A21FA63
:1006200002F00021704721FA02F3D040C2F120020B
:100630009140084319467047202A06DBCB17203A21
:1006400041FA02F043EAE07306E041FA02F3D040D7
:10065000C2F1200291400843194670470029A8BF03
:100660007047401C490008BF20F00100704710B4DB
:10067000B0FA80FC00FA0CF050EA010404BF10BC90
:10068000704749B1CCF1200421FA04F411FA0CF1BD
:1006900018BF012121430843A3EB0C01CB1D010628
:1006A000000A002BBEBF002010BC704700EBC350F7
:1006B00010440029A4BF10BC7047401C490008BF6B
:1006C00020F0010010BC704710B5002B08DA401C68
:1006D00041F1000192185B411A4301D120F0010061
:1006E00010BD2DE9F04D92469B4611B1B1FA81F251
:1006F00002E0B0FA80F220329046FFF77EFF044617
:100700000F4640EA0A0041EA0B0153465A460843A5
:1007100003D120463946BDE8F08D114653EA010069
:1007200015D0C8F140025046FFF776FF05460E4649
:10073000504659464246FFF760FF084301D001206A
:1007400000E00020054346EAE0762C4337430A9850
:100750004FEA4453A0EB08004FEAD4240A304FF08C
:10076000000244EA47544FEAD72502D5002001464B
:10077000D1E7010510196941DDE908450019694112
:10078000BDE8F04DA0E7C1F30A52C1F3130140F2F6
:10079000FF3341F480119A4202DA0020014670478B
:1007A00040F233439A42A2F2334202DC5242FFF754
:1007B00033BFFFF722BF000030B5002904DB4FF044
:1007C0000044404264EB0101002B04DB4FF0004485
:1007D000524264EB0303994208BF904230BD0000CF
:1007E000064C074D06E0E06840F0010394E807007E
:1007F00098471034AC42F6D3FFF7CAFC0C650008EA
:100800002C65000870B501EB020410F8015B15F0CF
:10081000070301D110F8013B2A1106D110F8012B72
:1008200003E010F8016B01F8016B5B1EF9D12B0797
:1008300005D40023521E0FD401F8013BFAE710F84B
:10084000013B02F10202A1EB030303E013F8015B99
:1008500001F8015B521EF9D5A142D6D3002070BD2C
:100860000146DFED170AB0EE600A00EE901AB8EE0E
:10087000601ADFED141AC1EE210A9FED131A60EE23
:10088000810AB0EE600AB5EEC00AF1EE10FA05D2A8
:10089000DFED0D0A70EE200AB0EE600ADFED0A0A05
:1008A000B4EEE00AF1EE10FA05DDDFED070A70EEB6
:1008B000600AB0EE600AFDEEC00A10EE900A7047C2
:1008C0000000000000F07F450000B44370B51E48F2
:1008D000006864281CD1002415E01C4800EBC4000B
:1008E000D0E9005118480268D3172846FFF768FC82
:1008F000174921F814000021144A02EBC4021160C8
:100900005160601CC4B2032CE7DB00200E49086074
:100910000D480068401C0C490860002011E00B499C
:1009200001EBC001D1E900410A4A32F81020A218B7
:1009300041F10001054B03EBC003C3E90021411C59
:10094000C8B20328EBDB70BDAC000020580C0020BF
:10095000B6000020B000002021B1826842F0010200
:10096000826003E0826822F001028260704700002A
:1009700000210A4A11680A4A01EA0201D0E900236B
:1009800042EA0302836842EA0302C36842EA0302BE
:1009900042EA0101034AC2F80413704704230140EC
:1009A000E030FCFF0020014000B59BB0012188052C
:1009B00001F0B0F80121084601F0ACF8012108026D
:1009C00001F0D8F80720009003208DF804000220E1
:1009D0008DF807006946394800F0F2FC384800F00D
:1009E00091FB002002903748039037480490002084
:1009F000059003200690002007904FF48060089037
:100A00004000099080000A9040110B9040020C9029
:100A100000200D9001200E9000200F90109002A950
:100A2000274800F01BFC0121254800F060FB00F086
:100A300063F80020119012901390149011A8FFF702
:100A400097FF0020159001208DF858008DF859006F
:100A500000201790199003208DF8680015A91948F7
:100A60004C3800F055F802230122002115484C387B
:100A700000F078F802231A46012112484C3800F0A1
:100A800071F80223032219460E484C3800F06AF828
:100A900001210C484C3800F024F8012109484C3859
:100AA00000F014F8012107484C38FFF755FF0548BE
:100AB0004C3800F0B3F81BB000BD0000000002404D
:100AC000106402404C200140B000002021B1826837
:100AD00042F48072826003E0826822F48072826055
:100AE000704721B1826842F40072826003E082683C
:100AF00022F400728260704710B50121080201F0F3
:100B000049F800214FF4807001F044F810BD000056
:100B100030B50246002000235068104C20400D796B
:100B20000C6844EA05242043506090680C4C204037
:100B3000D1E903542C438D682C434D7944EA450494
:100B400020439060D06A20F470000C7D641EE4B2F3
:100B5000234340EA0350D06230BD0000FFFEFFFC9B
:100B6000FDF7FFC0F0B504460D4600200021092D19
:100B700011DDE068A5F10A0606EB4607072606FA2E
:100B800007F18843A5F10A0606EB460603FA06F1CB
:100B90000843E0600CE0206905EB4507072606FAEC
:100BA00007F1884305EB450603FA06F10843206187
:100BB000072A0FDA606B561E06EB86071F2606FA19
:100BC00007F18843561E06EB860605FA06F1084330
:100BD000606322E00D2A0FDA206BD61F06EB860732
:100BE0001F2606FA07F18843D61F06EB860605FA8C
:100BF00006F10843206310E0E06AA2F10D0606EB5F
:100C000086071F2606FA07F18843A2F10D0606EBB8
:100C1000860605FA06F10843E062F0BD816841F0FE
:100C2000804181607047000010B520220A490B48BE
:100C300001F05AF800240CE004EB4402084B03EBEB
:100C40000221084A02EB04104FF4407201F04CF804
:100C5000641C002CF0D010BDC0130020F41500203F
:100C6000241600201416002070B505463C48006884
:100C700020B901203A490860FFF7D6FF39480078CB
:100C8000012830D002285CD1002429E004EB840044
:100C9000354901EB8000354951F82410405CA842E9
:100CA00019D1324850F82400401C304941F8240042
:100CB00004EB84002C4901EB80002C4951F82410EE
:100CC000405C60B92A490C70012026490870002058
:100CD0002849086003E00020244941F82400641CEE
:100CE000182CD3D33AE02248007800EB80001E4A4B
:100CF00002EB800001692846884758B9022019494B
:100D00000870002404E00020184941F82400641C05
:100D1000182CF8D317480068401C1649086008468C
:100D20000068B0F5407F0BD302200E490870002404
:100D300004E000200D4941F82400641C182CF8D36D
:100D40000CE0022007490870002404E00020074955
:100D500041F82400641C182CF8D300BF00BF70BDFC
:100D60007402002034020020146300087014002074
:100D7000880200209802002010B50446012000F0EF
:100D8000F3F8642003F0AEFB204600F004F8642082
:100D900003F0A8FB10BD10B50446202C0FD006DCD4
:100DA000102C09D0112C08D0132C11D106E0212CC5
:100DB00006D0232C0CD104E000BF00BF00BF00BF51
:100DC00000BF204600F0D0F80A2003F08BFB00E0C3
:100DD00000BF00BF10BD0000F0B52DED068B85B043
:100DE000044602259FED5A0AB0EE408A04AF642102
:100DF00001A800F0E1FD04E001A800F055F900B9F8
:100E0000A1E04FF40031534800F036FD0028F3D143
:100E10000121504800F0BAFC01214E4800F014FDB9
:100E2000642101A800F0C8FD04E001A800F03CF92D
:100E300000B988E04849474800F0B4FC0028F4D0E5
:100E400001224621434800F0ADFD642101A800F0D5
:100E5000B3FD04E001A800F027F900B973E03E49B2
:100E6000491C3C4800F09EFC0028F3D032E0012DE4
:100E700018D10021374800F089FC0121354800F0E5
:100E8000EFFC642101A800F097FD04E001A800F048
:100E90000BF900B957E031492E4800F0EDFC00286D
:100EA000F4D100BF642101A800F086FD04E001A890
:100EB00000F0FAF800B946E027493F31254800F034
:100EC00071FC0028F3D0234800F068FD38707F1CC7
:100ED000681EC5B2002DCAD101211E4800F056FC83
:100EE0009DF811009DF8101040EA012600EE106AEE
:100EF000B8EE400A10EE100AFFF73AFB41EC100B77
:100F0000B0EE40AAF0EE60AA9FED150B53EC102B4B
:100F100051EC1A0BFFF7B0FA41EC100BB0EE409A0F
:100F2000F0EE609A51EC190BFFF735FB08EE100A52
:100F3000BCEEC80A10EE100A80B22060002005B096
:100F4000BDEC068BF0BD4FF0FF3020600120F6E7CE
:100F500000000000005400400100030010000010D9
:100F6000333333333333F33F3EB504460121244852
:100F700000F00CFC0121224800F066FC6421684668
:100F800000F01AFD04E0684600F08EF800B935E084
:100F90001C491B4800F006FC0028F4D00022462122
:100FA000174800F0FFFC6421684600F005FD04E0EE
:100FB000684600F079F800B920E01349104800F0C5
:100FC000F1FB0028F4D021460D4800F0F3FC642129
:100FD000684600F0F1FC04E0684600F065F800B9EE
:100FE0000CE00949891C064800F0DCFB0028F3D01E
:100FF0000121034800F034FC01203EBD0020FCE745
:101000000054004001000300820007003EB5044682
:10101000204600F063FB6421684600F0CDFC04E04C
:10102000684600F041F800B907E04FF40031044889
:1010300000F022FC0028F3D13EBD0120FCE70000B7
:101040000054004000BFFEE701460020014A107036
:10105000704700004402002001460020014A107041
:10106000704700003002002001460B480B4A12680E
:1010700081540D290ED10022034608480068401C07
:101080001A540120064A107004480078054A10706E
:1010900000207047FF20FCE7F0130020980200209A
:1010A000350200203602002070B50446D4E9000164
:1010B0004518A068A84201D000F0E6FC00F006FB4D
:1010C0000546D4E900010844A0602068A84202D87F
:1010D00020682E1A03E02068C0F1FF3046196068CE
:1010E000B04201D8002070BD6068801BFBE721B1D1
:1010F000026842F00102026003E0026822F001028D
:1011000002607047016821F0010101600021016067
:1011100041608160C1600161212141614A49884289
:1011200004D13D21484A103A91608CE0464918317B
:10113000884205D14FF47461434A103A916082E0CD
:1011400041493031884205D14FF474113E4A103A7A
:10115000916078E03C494831884205D14FF0746194
:10116000394A103A91606EE037496031884204D1C3
:101170003649354A103AD16065E0334978318842C2
:1011800004D13349304A103AD1605CE02E499031A5
:10119000884204D12F492C4A103AD16053E02A49A1
:1011A000A831884205D14FF03D51274A103AD1600D
:1011B00049E02949884204D13D21274A083A116073
:1011C00041E025491831884205D14FF47461224A23
:1011D000083A116037E020493031884205D14FF498
:1011E00074111D4A083A11602DE01B4948318842AC
:1011F00005D14FF07461184A083A116023E016498E
:101200006031884204D11149134A121F11601AE05B
:1012100011497831884204D10D490F4A121F1160DB
:1012200011E00D499031884204D10A490A4A121F3F
:10123000116008E00849A831884204D14FF03D51BF
:10124000054A121F11607047106002403D000020E7
:10125000400F002000003D201064024010B5002225
:101260000268134B1A40CC680B6823434C69234334
:101270008C692343CC6923430C6A23434C6A234380
:101280008C6A23434C6B23438C6B23431A430260C9
:10129000426922F00702D1E90B3423431A43426129
:1012A0000B6943604B6883608B68C36010BD0000AE
:1012B0003F801CF07047000010B5102000F022F8AD
:1012C00038B1102000F018F802480068401C0149AD
:1012D000086010BDD400002010B5202000F012F8E6
:1012E00038B1202000F008F802480068401C01498D
:1012F000086010BD1401002001490860704700001B
:10130000143C0140014600200022074B1B6803EA01
:101310000102054B14331B680B4202D00AB10120B5
:1013200000E0002070470000003C014000212349FC
:101330008279002A3AD00A46126803689A430B461B
:101340001A600A1D126803689A430B1D1A6002791D
:1013500011440A6803681A430A60184A083212687E
:1013600003689A43154B08331A601A1D1268036804
:101370009A43124B0C331A604279102A0ED11A1F6D
:10138000126803681A430D4B08331A601A1D12685D
:1013900003681A43094B0C331A600DE00749427980
:1013A00011440A6803681A430A6005E0027911448F
:1013B0000A6803689A430A6070470000003C0140D5
:1013C000F0B50A4600210023002400BF3DE00125BE
:1013D00005FA01F3156805EA03049C4234D1056857
:1013E0004F000326BE40B543056015794E00B54059
:1013F0000668354305601579012D02D01579022D57
:1014000016D185684F000326BE40B54385605579E7
:101410004E00B540866835438560456801268E409C
:10142000B5434560456896798E40B6B23543456010
:10143000C5684F000326BE40B543C560D5794E0050
:10144000B540C6683543C560491C1029BFD3F0BDFF
:10145000F0B5002300244D07ED0E02FA05F3CE107F
:1014600000F1200555F826504E07F70E0F26BE4016
:10147000B543CF1000F1200646F82750CE1000F1FA
:10148000200555F8265045EA0304CE1000F120054A
:1014900045F82640F0BD0246002013690B4201D0FA
:1014A000012000E0002070470246002053690B42F3
:1014B00001D0012000E0002070474FF6FF7101606D
:1014C0000021017141718171C17170470AB10183BD
:1014D00000E041837047000001460020034A10707D
:1014E0000120034A10700020704700002A020020EB
:1014F0002902002010B504464048006820B10128A8
:1015000012D0022821D114E0A4F13001C8B200F0B9
:101510008DFC3B4908600846006808B1002010BDFA
:1015200001203849087066E02C2C01D00020F6E735
:1015300061E0302C06DD392C04DCA4F130003249A6
:10154000086001E00020EAE755E02E480078012815
:1015500004D002281FD003284BD128E0302C0FDB09
:10156000392C0DDC2848006800EB8000400026493B
:101570000860A4F13000096808442349086009E0C4
:101580003A2C07D00D2C03D102201E49087001E02F
:101590000020C4E72DE00A2C06D103201949087069
:1015A00000201A49086001E00020B8E721E0174850
:1015B0000068401C154908601549114A126801EB82
:1015C0000210214600F09FFB0F480068401E0E49A4
:1015D00008600846006858B901200E4908800E4985
:1015E000074A12688854042006490870002096E7CC
:1015F00000BF00BF00BF00BFFF2090E7980200209F
:101600005C02002064020020700200209002002092
:1016100014160020460200204802002001461A4805
:10162000006810B1012802D100E000BF29E016488F
:101630000068062803D30020144A10607047302940
:101640000FDB39290DDC1148006800EB80004000F9
:101650000E4A1060A1F13000126810440B4A10606D
:101660000EE00A48006838B108480068642803D2D0
:1016700006480068064A10600020044A1060DDE752
:1016800000BF00BFFF20D9E79802002068020020B9
:10169000240200200146302906DB392904DC0648F3
:1016A000064A1268815404E00120054A10600020B7
:1016B0007047FF20FCE70000D014002098020020B3
:1016C00040020020014600207047000001480068E9
:1016D000704700008800002000BFFEE710B586B00C
:1016E00004460121480500F025FA0121022000F0FE
:1016F00021FA0121880300F03DFA0121480500F09C
:1017000029FA00214FF4001000F024FA4FF4407041
:10171000049002208DF814008DF8150001208DF83A
:10172000160000208DF8170004A91648FFF748FEA0
:10173000042208211348FFF78BFE042209211148D7
:10174000FFF786FE104800F04FF80020ADF80400C7
:101750004BF6FF70ADF806000020ADF808004FF41E
:101760008060ADF80A000001ADF80C000094012182
:10177000054800F02CF86946034800F09BF806B0D5
:1017800010BD0000000402400054004021B1028856
:1017900042F48062028004E002884FF6FF331A4070
:1017A0000280704770B50246002400250023002007
:1017B000958A138B1B0445EA030626F07F4404EA4E
:1017C00001068E4201D1012000E0002070BD21B150
:1017D000028842F00102028004E002884FF6FE73A4
:1017E0001A4002807047000010B504461348844236
:1017F00009D10121480500F0ADF900214FF4001096
:1018000000F0A8F918E00E48844209D101218805AA
:1018100000F0A0F900214FF4800000F09BF90BE0EC
:101820000848844208D10121C80500F093F900213D
:101830004FF4000000F08EF910BD0000005400408D
:1018400000580040005C004021B1028842F48072E0
:10185000028004E002884FF6FF631A40028070475E
:1018600021B1028842F40072028004E002884FF63F
:10187000FF531A40028070470CB502460020002337
:101880000193009300920B0F019321F07F41019B84
:101890001BB1009B1433009303E0090C009B183329
:1018A0000093009B1B680B4201D0012000E0002048
:1018B0000CBD00002DE9FF4704460D460026B14649
:1018C0000427DFF8CC80A6884FF6C0700640684633
:1018D00000F070F9DDF808802E48B8FBF0F01FFA30
:1018E00080F946EA0906A68020884FF6FE71084076
:1018F000208000262849286888420CD828684000A3
:10190000B8FBF0F087B2042F00DA04273E4309F158
:101910000100208427E0E888A0F53F41FF3906D187
:10192000286800EB4000B8FBF0F087B209E02868B7
:1019300000EBC00101EB0010B8FBF0F087B247F4F8
:1019400080473805000D01D147F0010747F40040FA
:1019500006434FF4967009FB00F04FF47A7190FB48
:10196000F1F0401C2084A683208840F001002080F4
:1019700026884FF6F5300640A88869890843064353
:101980002680A889298908432081BDE8FF870000B7
:1019900000127A0040420F00A08601000146088A2A
:1019A000C0B2704712B141F0010101E001F0FE0147
:1019B000018270470182704700B50246FFF786FE3C
:1019C00010605160D2E900031844906000BD00BF70
:1019D000FEE7704770B5002100230F22C47824B3BE
:1019E000174C246804F4E064C4F5E064C4F30721F0
:1019F000C1F10404E3B20A4144789C40E1B2847826
:101A0000144021430C07210E0E4C057861550478D3
:101A100004F01F050124AC4005786D114FF0E0265D
:101A200006EB8505C5F8004109E0047804F01F04C1
:101A30000125A540044C0678761144F8265070BD67
:101A40000CED00E000E400E080E100E00249014329
:101A5000024A1160704700000000FA050CED00E03A
:101A600010B5002807DA0A07140E054A00F00F0324
:101A70001B1FD45403E00A07130E024A135410BD6F
:101A800018ED00E000E400E0BFF34F8F0648006867
:101A900000F4E06005490843001D03490860BFF3F6
:101AA0004F8F00BFFEE700000CED00E00000FA05DC
:101AB0001CB50121102000F02DF8202000900120FD
:101AC0008DF8040002208DF8050000208DF8060036
:101AD00001208DF8070069460748FFF771FC1020C8
:101AE000009069460448FFF76BFC082000906946A7
:101AF0000148FFF765FC1CBD001002407047000064
:101B000010B50348FFF782FA1020FFF735F910BD32
:101B1000A086010029B1064A12680243044B1A60EC
:101B200004E0034A12688243014B1A6070470000C8
:101B30003038024029B1064A12680243044B1A6049
:101B400004E0034A12688243014B1A6070470000A8
:101B50004038024029B1064A12680243044B1A6019
:101B600004E0034A12688243014B1A607047000088
:101B70002038024029B1064A12680243044B1A6019
:101B800004E0034A12688243014B1A607047000068
:101B90004438024029B1064A12680243044B1A60D5
:101BA00004E0034A12688243014B1A607047000048
:101BB00024380240F0B5002100220024022500262E
:101BC0000223324F3F6807F00C0121B1042905D0F0
:101BD000082937D105E02E4F076036E02D4F07600A
:101BE00033E02A4F3F1F3F68C7F38056274F3F1F00
:101BF0003F6807F03F036EB1264FB7FBF3F7DFF8FE
:101C00008CC0ACF1040CDCF800C0CCF3881C07FBE2
:101C10000CF40CE01E4FB7FBF3F7DFF870C0ACF12B
:101C2000040CDCF800C0CCF3881C07FB0CF4174F45
:101C30003F1F3F68C7F301477F1C7D00B4FBF5F7EA
:101C4000076002E0124F076000BF00BF0F4F3F6800
:101C500007F0F0010909104F7A5C0768D740476028
:101C60000A4F3F6807F4E051890A0B4F7A5C4768D6
:101C7000D7408760054F3F6807F46041490B064F26
:101C80007A5C4768D740C760F0BD00000838024062
:101C90000024F40000127A000000002010B5002299
:101CA0004FF400510148FFF711FC10BD000C024039
:101CB0001CB501210820FFF72DFF4FF400500090C4
:101CC00001208DF8040002208DF8050000208DF819
:101CD000060001208DF8070069460248FFF770FBF7
:101CE0001CBD0000000C0240034613B109B1022ADA
:101CF00002D24FF0FF307047D96000201860586062
:101D00009A6000BFF7E710B502460B461168491C00
:101D10009068884200D800215068884202D14FF074
:101D2000FF3010BD1468D068035511600020F8E73B
:101D300000B585B001210420FFF7ECFE01218803E6
:101D4000FFF718FF00208DF8080001208DF80B0028
:101D50002020019001A91248FFF732FB0521022043
:101D600000F08AFC2020039000208DF810000C2049
:101D70008DF8110001208DF8120003A8FFF7D6FAA4
:101D800017208DF800000F208DF801008DF802005B
:101D900001208DF803006846FFF71CFE05B000BD6A
:101DA0000008024010B52DED068B04461A48408805
:101DB00000EE100AB8EE400A10EE101A0846FEF7C0
:101DC000D7FB41EC100BB0EE40AAF0EE60AA9FEDFD
:101DD000130B53EC102B51EC1A0BFEF7DBFA41EC12
:101DE000100BB0EE409AF0EE609A9FED0E0B53ECA4
:101DF000102B51EC190BFEF726FA41EC100BB0EE4C
:101E0000408AF0EE608A51EC180BFEF7C4FB2060AC
:101E1000BDEC068B10BD0000B60000207250564A83
:101E20008C93823F333333333333D33F0246002125
:101E30000CE0084850F82100012805D10648405C14
:101E4000904201D108467047481CC1B20129F0DB1D
:101E5000FF20F8E750020020540200200146002035
:101E6000704700002DE9F04107460C4615461E4616
:101E7000144807601448048014480560144806801C
:101E80000223012201881148006803F045FD022366
:101E900001220D4801880B48006803F03DFD002237
:101EA0000B48018809480068FFF710FB012206482B
:101EB000018804480068FFF709FB642002F012FB68
:101EC000BDE8F081A0020020A8020020A4020020AA
:101ED000AA020020C0EBC00000BF0100A0F1010079
:101EE000FBD1704710B5022300222048018820480A
:101EF000006803F011FD082000F0E4F90446240214
:101F000002230122194801881948006803F004FDE2
:101F100000221648018816480068FFF7D7FA03F038
:101F20005BF901221348018813480068FFF7CEFAD5
:101F300003F052F903F050F903F04EF900220D4876
:101F400001880D480068FFF7C1FA03F045F9022344
:101F50000022064801880648006803F0DDFC0820DE
:101F600000F0B0F90443204610BD0000A802002094
:101F7000A0020020AA020020A402002070B52DEDCE
:101F8000108B84B00446B9EE000AB0EE40FA9FED23
:101F90004A0AF0EE40FA9FED490A8DED020A9FEDE4
:101FA000480A8DED010A9FED470A8DED000A0526CE
:101FB000304600F0DDF800F033FAFFF793FF08EE4B
:101FC000100A00F0FDF9F8EEC80A9FED3B1AB9EED1
:101FD000000A01EE200AF8EEC80A9FED381A60EEFA
:101FE000810AB8EEC81A00EE810A10EE105A03A852
:101FF00000F070F82846FEF7BBFA41EC100BB0EE8B
:1020000040AAF0EE60AAF8EEC80A9FED2D0A9FEDF7
:102010002D1A01EE200A10EE101A0846FEF7A8FA53
:1020200041EC100BB0EE40CAF0EE60CA0398FEF728
:102030009FFA41EC100BB0EE40EAF0EE60EA9FED43
:10204000220B53EC102B51EC1E0BFEF79DF941ECCB
:10205000100BB0EE40DAF0EE60DA53EC1C2B51ECD2
:102060001D0BFEF797F941EC100BB0EE40BAF0EE05
:1020700060BA53EC1A2B51EC1B0BFEF7E4F841EC61
:10208000100BB0EE409AF0EE609A51EC190BFEF78F
:1020900082FA08EE900A0E480078012807D1BFEEB8
:1020A000000A84ED000A04B0BDEC108B70BDC4EDD5
:1020B000008A0020F7E7000054E3253DA2E73BB685
:1020C0000AD7233CACC5A738000000000000394007
:1020D0009C02002010B52DED048B04469FED130AE1
:1020E000B0EE409A9FED120AF0EE409A00F024F80C
:1020F000BDEEC00AB0EE408AF8EEC80A9FED0C1A99
:102100009FED0A0A00EE810AF0EE408A0948007845
:10211000012806D1BFEE000A84ED000ABDEC048B55
:1021200010BDC4ED008A0020F8E70000D7A31EC24E
:102130000AD7233C9C02002070B50325284600F0F6
:1021400017F800F06DF908480078012802D19FEDDA
:10215000070A70BDFFF7C6FE044600F031F900EE35
:10216000104AB8EEC00AF4E79C020020000000000C
:1021700010B50446022301224D4801884D480068ED
:1021800003F0CAFB022301224B4801884B48006838
:1021900003F0C2FB0520FFF79DFE0122464801889F
:1021A00046480068FFF792F90022414801884148FB
:1021B0000068FFF78BF903F00FF801223C48018813
:1021C0003C480068FFF782F903F006F800223A481D
:1021D00001883A480068FFF779F902F0FDFF002214
:1021E0003348018833480068FFF770F902F0F4FFC4
:1021F00002F0F2FF02F0F0FF01222D4801882D4885
:102200000068FFF763F902F0E7FF01222A4801881E
:102210002A480068FFF75AF902F0DEFF002224483E
:10222000018824480068FFF751F9204600F082F841
:1022300002230022204801882048006803F06CFB3C
:1022400002F0CAFF01221A4801881A480068FFF705
:102250003DF902F0C1FF02F0BFFF02F0BDFF1648DA
:10226000018816480068FFF716F918B900201449CC
:10227000087002E001201249087000220C48018811
:102280000C480068FFF722F902F0A6FF02F0A4FF55
:1022900002F0A2FF0848018808480068FFF7FBF831
:1022A0000548018805480068FFF7F5F810BD0000F3
:1022B000AA020020A4020020A8020020A002002000
:1022C0009C02002070B50546002402230022154818
:1022D00001881548006803F01FFB00261EE001225C
:1022E0001248018812480068FFF7F0F802F074FF06
:1022F0000C4801880C480068FFF7CDF800EB440457
:1023000002F06AFF02F068FF0022084801880848CE
:102310000068FFF7DBF802F05FFF761CAE42DEDB01
:10232000204670BDA8020020A0020020AA020020C2
:10233000A402002070B50446022301221C48018833
:102340001C48006803F0E8FA00252CE014F0800F28
:1023500007D001221648018816480068FFF7B6F832
:1023600006E000221248018812480068FFF7AEF824
:1023700002F032FF01221048018810480068FFF780
:10238000A5F802F029FF02F027FF02F025FF002246
:102390000948018809480068FFF798F802F01CFF17
:1023A0006400681CC5B2082DD0DB002070BD0000A1
:1023B000A8020020A0020020AA020020A4020020FF
:1023C00010B502230122124801881248006803F068
:1023D000A3FA01220E4801880E480068FFF776F83C
:1023E00002F0FAFE01220C4801880C480068FFF751
:1023F0006DF802F0F1FE02F0EFFE002206480188BF
:1024000006480068FFF762F802F0E6FE10BD000023
:10241000A8020020A0020020AA020020A40200209E
:1024200010B502230022154801881548006803F002
:1024300073FA02F0D1FE64240DE0104801881048C0
:102440000068FFF728F818B900200E49087007E067
:102450000A2002F047F82000A4F10101CCB2ECD12F
:1024600000BF0648018806480068FFF714F80128F5
:1024700000D014B901200349087010BDA802002043
:10248000A00200209C02002001460120014A1060A9
:10249000002070473C02002010B504462348006825
:1024A00030B101280FD002280ED0032835D10CE01E
:1024B000302C06DB392C04DCA4F130001C49086008
:1024C00030E0002010BD00BF00BF302C0FDB392CE6
:1024D0000DDC1748006800EB8000400014490860DC
:1024E000A4F1300009680844114908601AE0104856
:1024F00001781048FFF707FC0D480088C0F307215A
:102500000C48FFF700FC0C480068401C0A490860B2
:1025100001200A4908600020D4E70120074908602B
:102520000020CFE700BFFF20CCE70000980200208A
:102530006C020020F4150020380200203C0200202C
:1025400001464248006878B90020414A1070414A6B
:1025500010704148414A10604148424A1060424868
:10256000424A1060FF2070472C2904D13848007877
:10257000401C374A10703748007800283AD03B4852
:1025800000680078884211D138480068401C374AFA
:102590001060104600680078A0B90020314A126827
:1025A00010700120324A10700020DCE72E482F4ABC
:1025B0001060104600680078884203D11046006819
:1025C000401C106027480068254A801AFF2808D35D
:1025D0000020244A126810700120254A1070002043
:1025E000C1E72048006801701E480068401C1D4A71
:1025F000106023E01648007810B101281CD100E0DB
:102600001BE016480068144A801A122802D30020E2
:102610001070A8E7302901DB392901DD2B290AD107
:102620000E48006801700D480068401C0B4A10609D
:1026300000201268107000E000BF00BF0A2902D11C
:102640000120044A1070FF208DE70000980200204E
:102650007802002079020020DF1500207C02002093
:10266000E0140020840200200C6300088002002097
:10267000650200207047000030B500228B071C0F58
:102680000F2303FA04F20B4B8C1053F824309343BE
:10269000084C8D1044F8253023468C1053F8243014
:1026A0008C07240F00FA04F42343024C8D1044F8E5
:1026B000253030BD0838014010B5FFF7F9F9FEF7B5
:1026C00073F901F00BF9FFF733FB10BD10B50022D1
:1026D00004210848FEF7FAFE4FF47A7001F002FF79
:1026E000012204210348FEF7F1FE4FF4FA6001F0E5
:1026F000F9FE10BD0010024038B500244748FFF72E
:1027000051FB00F0CFFB4648FFF7E4FC68B145A061
:1027100001F0A2F948480078401C474908709FED35
:10272000470A3F4880ED000A1DE03D4890ED000A51
:10273000DFED430AB4EEE00AF1EE10FA06DC90EDAC
:10274000000AB5EEC00AF1EE10FA0CD235A001F085
:1027500083F939480078401C374908709FED370AE3
:102760002F4880ED000A3748FFF708FC68B136A013
:1027700001F072F930480078401C2F4908709FED35
:102780002F0A304880ED000A1DE02E4890ED000A27
:10279000DFED2B0AB4EEE00AF1EE10FA06DC90ED64
:1027A000000AB5EEC00AF1EE10FA0CD226A001F034
:1027B00053F921480078401C1F4908709FED1F0AFB
:1027C000204880ED000AFFF79BF9642001F08AFEA3
:1027D0006846FEF701FB40B92149009808600846A9
:1027E000006868B9002008600AE01EA001F034F912
:1027F00011480078401C10490870002018490860F2
:102800000D480078052807DB1AA001F025F9002003
:1028100009490870FFF75AFF38BD00001801002071
:10282000E00000205348542054656D7020457272BA
:102830006F72202E2E2E0A001E01002000000000C4
:102840000000C842E40000205348542048756D69D8
:1028500064204572726F72202E2E2E0A0000000036
:10286000F4000020424831373530204572726F72D3
:102870000A00000052657365742053656E736F72B1
:10288000202E2E2E200A0A000CB500200190009068
:102890003448006840F480303249086000BF314855
:1028A000006800F4003000900198401C01900098EE
:1028B00018B90198B0F5A06FF1D12A48006810F45A
:1028C000003F02D00120009001E00020009000981D
:1028D000012845D123484030006840F0805021490C
:1028E000403108602048006840F440401E490860BC
:1028F0001C48083000681B49083108600846006819
:1029000040F4004008600846006840F4A0500860A9
:102910001648091F0860081F006840F08070091FF2
:10292000086000BF0F48006810F0007FFAD040F246
:1029300005700F4908600B480830006820F003005C
:102940000849083108600846006840F00200086045
:1029500000BF04480830006800F00C000828F8D1D7
:102960000CBD0000003802400070004008544007D1
:10297000003C02400146FF20024A10700020024A3B
:102980001060704754020020500200200146FF20D2
:10299000024A50700020024A5060704754020020E2
:1029A000500200200146FF20024A90700020024A97
:1029B0009060704754020020500200200146FF2022
:1029C000024AD0700020024AD060704754020020B2
:1029D000500200200146FF20024A10710020024AE6
:1029E0001061704754020020500200200146FF2071
:1029F000024A50710020024A506170475402002080
:102A0000500200200146FF20024A90710020024A35
:102A10009061704754020020500200200146FF20C0
:102A2000024AD0710020024AD0617047540200204F
:102A30005002002010B524480068401C224908605C
:102A400022480088401C214908802148006800284D
:102A500004DD1F480068401E1D4908601B480088AF
:102A6000282805DB0020194908807F2000F0B2FEED
:102A700002F0A8FCFDF72AFF134800680A21B0FB0A
:102A8000F1F201FB120008B900F0CCFE0E4800681C
:102A90004FF47A71B0FBF1F201FB120090B9012101
:102AA0000C4800F0A5F80C480088401C0A49088032
:102AB000084600883C2801DBFEF7E6FF00F048FFEF
:102AC00001F03CFC10BD000088000020A0000020A8
:102AD000A4000020C80000201200002010B51248F9
:102AE00000684FF47A71B0FBF1F4601EB0F1807FA2
:102AF00001D301200FE0601E4FF0E02148610F215B
:102B00004FF0FF30FEF7ACFF00204FF0E02188616E
:102B100007200861002008B100BFFEE70021481E21
:102B2000FEF79EFF10BD00007400002010B5154890
:102B3000006840F47000134908601348006840F0D2
:102B400001001149086000200F49083108600E4853
:102B500000680E4908400C4908600D48091D0860CE
:102B6000081F006820F48020091F08600020064923
:102B70000C310860FFF788FE4FF000600149803992
:102B8000086010BD88ED00E000380240FFFFF6FE4F
:102B90001030002410B50121880700F0CFF830B1C3
:102BA0000121880700F0A4F801480068804710BDA3
:102BB000E401002010B502210A4800F0BFF880B1FE
:102BC0000221084800F094F8064800F0B4F80649DD
:102BD000088008460088054A12888118014800F0DC
:102BE00011F910BD000400402A010020200100203E
:102BF00070B505460C4615B94FF0FF3070BD0CB9E5
:102C00000020FBE7284600F02EF80619314628463A
:102C100000F002F80020F1E713B58CB004461CB9AF
:102C20004FF0FF300EB010BD01A90DA802F0F6F96B
:102C3000019840B2E071029840B2A071039840B28E
:102C40006071049840B2E0700798401C40B2207157
:102C50000598401C40B2A070069800F26C7000B25B
:102C600020800020DEE710B58CB004461CB94FF080
:102C7000FF300CB010BD94F90700019094F90600E4
:102C8000029094F90500039094F90300049094F9DC
:102C90000400079094F90200012808DB94F902006F
:102CA0000C2804DC94F90200401E059001E000208D
:102CB000DFE7B4F9000040F2DC7188420BDBB4F9C5
:102CC000000040F63301884205DCB4F90000A0F2B0
:102CD0006C70069001E00020CBE70020099001A86D
:102CE00002F0BEFBC5E701464FF47A7048437047D7
:102CF000CA430282704721B1028842F00102028079
:102D000004E002884FF6FE731A400280704708B54F
:102D100001210220FEF70EFF1D208DF80000FF208C
:102D20008DF801008DF8020001208DF8030068463F
:102D3000FEF750FE08BD0146486B704730B50246AD
:102D4000002000230024158A05EA0103958905EA7D
:102D5000010413B10CB1012000E0002030BD1AB114
:102D600083890B43838102E083898B43838170478E
:102D700070B5002400220023058C4FF6FE76354006
:102D80000584028C8388048B4FF68F752C40B51E0A
:102D90002C400D882C43751E2A408D892A434D886E
:102DA0002A43104DA84202D00F4DA84213D14FF62E
:102DB000F7752A40CD892A434FF6FB752A408D8846
:102DC0002A434FF6FF652B404FF6FF552B400D8AE7
:102DD0002B434D8A2B43838004838D684563028493
:102DE00070BD000000000140000401400A460021BF
:102DF000018B4FF6F773194011430183704701852A
:102E000082827047416370474162704700220288A6
:102E1000184B98420ED0184B98420BD0B0F1804F0F
:102E200008D0164B984205D0154B984202D0154B4E
:102E3000984204D14FF68F731A404B881A43124BB5
:102E4000984207D0114B984204D04FF6FF431A40E6
:102E50000B891A4302804B68C3620B880385054BBC
:102E6000984202D0044B984201D18B7A0386012309
:102E700083827047000001400004014000040040CC
:102E800000080040000C004000100040001400400A
:102E90004FF0FF314160002101800181418081724A
:102EA0007047000010B50548FEF79EFC4FF4807394
:102EB000034A51151046FEF7D5FF10BD00540040DF
:102EC0000004024010B58AB0FFF721FF2D480068CA
:102ED000400842F21071B0FBF1F0401E2A49088010
:102EE0004FF6FF7008900020ADF81C00ADF82400EC
:102EF000ADF81E0007A92548FFF788FF01222248E8
:102F000001882248FFF77BFF0020ADF80800012070
:102F1000ADF80A001E48008804900020ADF81400A7
:102F200002A91A48FFF724FF00211848FFF75EFFA7
:102F3000012202211548FFF712FF1D20032100285E
:102F400006DA0A01134B00F00F04241F1A5502E0A1
:102F50000A01114B1A5400BF1D208DF804000F20E8
:102F60008DF8050000208DF8060001208DF807007F
:102F700001A8FEF72FFD01210448FFF7BCFE0AB0AF
:102F800010BD000074000020280100200004004053
:102F90002001002018ED00E000E400E030B587B02B
:102FA000044601211020FEF7E5FD01210220FEF775
:102FB000B1FDC020059002208DF818008DF8190091
:102FC00000208DF81A0001208DF81B0005A9234868
:102FD000FEF7F6F9072206212048FEF739FA072204
:102FE00011461E48FEF734FA01940020ADF808009F
:102FF000ADF80A00ADF80C00ADF810000C20ADF8EB
:103000000E0001A9164800F067FB252001210028C9
:1030100006DA0A01134B00F00F052D1F5A5502E086
:103020000A01114B1A5400BF25208DF80000002022
:103030008DF801008DF8020001208DF8030068462C
:10304000FEF7C8FC012240F22551054800F01FFBA5
:103050000121034800F05FFA07B030BD00040240D0
:103060000010014018ED00E000E400E010B588B069
:10307000044601214804FEF75DFD01210820FEF70A
:1030800049FD6020069002208DF81C008DF81D007F
:1030900000208DF81E0001208DF81F0006A91C4895
:1030A000FEF78EF9072205211948FEF7D1F907220C
:1030B00006211748FEF7CCF902940020ADF80C0069
:1030C000ADF80E00ADF81000ADF814000C20ADF80E
:1030D000120002A90F4800F0FFFA012240F2255128
:1030E0000C4800F0D4FA26208DF8040000208DF85A
:1030F00005008DF8060001208DF8070001A8FEF7F5
:1031000069FC0121034800F006FA08B010BD000078
:10311000000C02400044004010B588B00446012174
:103120008804FEF707FD01210220FEF7F3FC4FF4AF
:103130004060069002208DF81C008DF81D000020D4
:103140008DF81E0001208DF81F0006A92048FEF70B
:1031500037F907220A211E48FEF77AF907220B21C8
:103160001B48FEF775F902940020ADF80C00ADF88D
:103170000E00ADF81000ADF814000C20ADF81200F0
:1031800002A9144800F0A8FA012240F22551114882
:1031900000F07DFA27208DF8040000208DF805004E
:1031A0008DF8060001208DF8070001A8FEF712FC3B
:1031B0000121084800F0AFF90648074908600020DF
:1031C00081F8020281F8040281F8050208B010BDFE
:1031D00000040240004800404808002010B588B0B4
:1031E00004460121C804FEF7A5FC01210846FEF7AC
:1031F00091FC0320069002208DF81C008DF81D0024
:1032000000208DF81E0001208DF81F0006A91C4823
:10321000FEF7D6F8082200211948FEF719F908220E
:1032200001211748FEF714F902940020ADF80C00B4
:10323000ADF80E00ADF81000ADF814000C20ADF89C
:10324000120002A90F4800F047FA012240F225516E
:103250000C4800F01CFA34208DF8040000208DF892
:1032600005008DF8060001208DF8070001A8FEF783
:10327000B1FB0121034800F04EF908B010BD000079
:1032800000000240004C004010B540F225510B48B0
:1032900000F0D3F980B1094800F088FAC4B20848B8
:1032A00001780078401C064A1070064844540A21F0
:1032B0000548FEF781FB00BF10BD00000050004034
:1032C00012020020000F0020F40E002010B588B07C
:1032D000044601210805FEF72DFC01210C20FEF714
:1032E00019FC4FF48050069002208DF81C008DF8D8
:1032F0001D0000208DF81E0001208DF81F0006A97A
:103300001E48FEF75DF80420069006A91C48FEF74B
:1033100057F8082202211A48FEF79AF808220C21D1
:103320001648FEF795F802940020ADF80C00ADF8B1
:103330000E00ADF81000ADF814000C20ADF812002E
:1033400002A9104800F0C8F9012240F225510D48A9
:1033500000F09DF935208DF8040000208DF805005F
:103360008DF8060001208DF8070001A8FEF732FB5A
:103370000121044800F0CFF808B010BD0008024059
:10338000000C02400050004070B504460D46114844
:10339000844203D12846FFF701FE1AE00E4884421A
:1033A00003D12846FFF762FE13E00C48844203D1A4
:1033B0002846FFF7B1FE0CE00948844203D12846B5
:1033C000FFF70CFF05E00748844202D12846FFF7CB
:1033D0007DFF70BD001001400044004000480040E7
:1033E000004C00400050004010B540F22551084804
:1033F00000F023F950B1064800F0D8F9C4B22146D4
:103400000448FEF780FC2046FDF72EFC10BD0000AE
:1034100000100140B013002010B540F225510648BD
:1034200000F00BF938B1044800F0C0F9C4B22146ED
:103430000248FEF768FC10BD00440040A0100020C8
:1034400010B540F225510B4800F0F7F880B109485B
:1034500000F0ACF9C4B2084801780078401C064A74
:103460001070064844540A210548FEF7A5FA00BF2B
:1034700010BD00000048004015020020600F002031
:10348000540F002010B540F225510D4800F0D5F83A
:1034900038B140F225510A4800F018F80948006890
:1034A000804740F22771064800F0C7F838B140F273
:1034B0002771034800F00AF803480068804710BDF0
:1034C00000140140DC010020E001002010B50022C2
:1034D0000023A1F510646A3C00D100BF0A12012448
:1034E0009440A3B2DC43048010BD10B50246002016
:1034F000108A20F470600B884C8823438C88234307
:10350000CC8823431843108210BD002101804180E4
:103510008180C180704721B1828942F4005282814A
:1035200004E082894DF6FF731A40828170470000E3
:1035300010B504463248844208D101211020FEF71C
:1035400029FB00211020FEF725FB57E02D4884427F
:1035500009D101214804FEF7FDFA00214FF40030A3
:10356000FEF7F8FA4AE02848844209D1012188048C
:10357000FEF7F0FA00214FF48020FEF7EBFA3DE071
:103580002248844209D10121C804FEF7E3FA002150
:103590004FF40020FEF7DEFA30E01D48844209D1E6
:1035A00001210805FEF7D6FA00214FF48010FEF73E
:1035B000D1FA23E01748844208D101212020FEF7E8
:1035C000E9FA00212020FEF7E5FA17E012488442CC
:1035D00009D101218807FEF7BDFA00214FF0804094
:1035E000FEF7B8FA0AE00D48844207D101214005F0
:1035F000FEF7B0FA00216005FEF7ACFA10BD00003E
:10360000001001400044004000480040004C0040D1
:10361000005000400014014000780040007C004051
:1036200002460020B1F5007F00D100BF13880B4295
:1036300001D0012000E00020704770B50246002450
:10364000002300250020A1F510666A3E00D100BFCE
:10365000C1F3421501F01F03012606FA03F3012D01
:1036600002D19689334006E0022D02D1168A3340FA
:1036700001E0968A33400C12012606FA04F41688FB
:10368000344013B10CB1012000E0002070BDF0B552
:1036900003460024002600250020A1F510676A3F9C
:1036A00000D100BF1846C1F3421401F01F060127E4
:1036B00007FA06F5012C01D10C3004E0022C01D1EF
:1036C000103000E014301AB107682F43076002E0A1
:1036D0000768AF430760F0BD2DE9FF4705460E467A
:1036E0000024A14600BFA046B08900B100BF2C8ACB
:1036F00024F44054F08804432C82AC8941F20C60DD
:103700008443B08831890843718908430443AC81FC
:10371000AC8A24F44074B0890443AC826846FEF756
:1037200049FA2048854202D01F48854202D1DDF87F
:103730000C9001E0DDF80890A88910F4004F08D043
:1037400009EBC90000EB091031684900B0FBF1F743
:1037500007E009EBC90000EB091031688900B0FBF4
:10376000F1F76420B7FBF0F004012009642101FBAC
:103770001078A88910F4004F08D0322000EBC80060
:10378000B0FBF1F000F00700044308E0322000EB4A
:1037900008106421B0FBF1F000F00F0004432C810D
:1037A000BDE8FF87001001400014014001468888F1
:1037B000C0F308007047C1F308028280704700BF61
:1037C000FEE7000040F08001014A116070470000F0
:1037D000002C004000F07F01014A1160704700009A
:1037E000002C00400021044A126822F4C0710143F9
:1037F000014A116070470000042C004008B5002108
:1038000000910749096821F07F01009100F07F01D4
:10381000009A11430091024A0099116008BD00000E
:10382000042C004000B50022002328498888FDF7B9
:1038300017F80246162A01DA00231EE0432A01DAAD
:1038400001231AE0702A01DA022316E09D2A01DA28
:10385000032312E0D42A01DA04230EE0F72A01DA66
:1038600005230AE0B2F5927F01DA062305E0B2F5FE
:10387000A87F01DC072300E00023154840681449B5
:1038800088600846006848601248006858B90846D1
:10389000006810B9042B00D100230D48006810B94E
:1038A000052B00D100230A48036080680849496855
:1038B000884209D10648406805490968884203D111
:1038C000034800680449086000BD0000B000002003
:1038D000700C0020A40000200001002000B585B07D
:1038E00001210420FEF716F901218803FEF742F9B1
:1038F00000208DF8080001208DF80B0010200190A9
:1039000001A91248FDF75CFD04210220FEF7B4FE78
:103910001020039000208DF810000C208DF811006D
:1039200001208DF8120003A8FDF700FD0A208DF894
:1039300000000F208DF801008DF8020001208DF8A5
:1039400003006846FEF746F805B000BD00080240D7
:1039500010B52DED0C8B35480078401C33490870AC
:10396000084600783249097888425CDB9FED310ACD
:10397000B0EE408A2E480078FCF7EDFD41EC100BCC
:10398000B0EE40AAF0EE60AA2B4890ED000AB8EE27
:10399000C00A10EE100AFCF7EBFD41EC100BB0EE84
:1039A00040DAF0EE60DA9FED250B53EC102B51EC72
:1039B0001D0BFCF7EFFC41EC100BB0EE40CAF0EE33
:1039C00060CA9FED200B53EC102B51EC1C0BFCF745
:1039D000E1FC41EC100BB0EE40BAF0EE60BA53ECF3
:1039E0001A2B51EC1B0BFCF747FD41EC100BB0EE12
:1039F000409AF0EE609A51EC190BFCF7CCFD08EE02
:103A0000100A0D48006811490860114880ED008ACD
:103A1000BCEEC80A0F4880ED000A00200649086085
:103A20000249087000BFBDEC0C8B10BD1C010020CA
:103A30001D01002000000000D40000200000000054
:103A4000000002407250C24CDBBFF93FD80000209A
:103A5000100100200C0100200FB4054B10B503A984
:103A6000044A029800F0C6F810BC5DF814FB000090
:103A7000F94F0008AC02002002E008C8121F08C17C
:103A8000002AFAD170477047002001E001C1121FDF
:103A9000002AFBD1704700002DE9FF5FDDE902201D
:103AA000010DDDF838B0024310D10F9801244CA26B
:103AB000012808D0002100980F9BC0E90021C0E92F
:103AC0000243BDE8FF9F6FEA0B01F4E7A1F2FF316B
:103AD00044F6105041430D140F9801280ED0A5EB69
:103AE0000B00401C4FF000043E4EDFF8FC90B0F19C
:103AF000000AA04605DACAF1000717E0CBF1000082
:103B0000F0E7074612E0F80707D022463346404662
:103B10004946FCF73FFC804689462246334610461C
:103B20001946FCF737FC04460E467F10002FEAD1F9
:103B3000DDE90201BAF1000F42464B4602DAFCF71A
:103B400029FC01E0FCF798FC04460E460022274BB6
:103B5000FCF732FE03D84FF0FF30014607E00022A9
:103B6000234B20463146FCF76EFBFCF70CFE10247D
:103B700009E0002C0ADB0A220023FCF721FB019B51
:103B800030321A55641E50EA0102F2D1641C019AC7
:103B9000C4F1110314440F9A012A09D001220843E9
:103BA00001D15B450FDD4FF0000205F101050DE08D
:103BB000084303D1A3EB0B056D1E09E000204FF075
:103BC000110B0F9088E701DA00226D1E002A83D0C6
:103BD00000980F99C0E90231C0E9004571E7000083
:103BE00030000000000024400000F03F0000F043DF
:103BF0000000E03F2DE9FF4F95B09B468946064601
:103C0000002512E2252878D10024761CF94A27469F
:103C1000012105943378203B01FA03F0104202D0D1
:103C20000443761CF6E730782A2811D06FF02F0372
:103C30003078A0F13002092A16D8059A44F002041F
:103C400002EB820203EB42021044761C0590EFE780
:103C500059F8042B0592002A03DA504244F4005428
:103C6000059044F00204761C30782E2816D116F800
:103C7000010F44F004042A280DD06FF02F02307891
:103C8000A0F13003092B09D807EB870302EB4303AC
:103C9000C718761CF3E759F8047B761C30786C283B
:103CA0000FD006DC4C2817D068280DD06A2814D114
:103CB00004E0742810D07A280FD10DE044F40014E9
:103CC0000AE044F4801401E044F440147278824223
:103CD00002D1761C04F58014761C307866280BD04F
:103CE00013DC582877D009DC002875D04528F6D099
:103CF0004628F4D047281AD19FE118E0632835D030
:103D0000642879D0652812D197E1702873D008DC37
:103D10006728F1D069286FD06E280DD06F2806D1A2
:103D2000B5E073282CD0752875D0782874D05A4601
:103D3000179990476D1C76E1C4F30250022809D010
:103D400003280DD0D9F8001004280DD00D6009F11A
:103D5000040968E1D9F80010EA17C1E90052F6E752
:103D6000D9F800100D80F2E70D70F0E719F8041B88
:103D70008DF8001000208DF80100EA46012003E0D4
:103D800059F804AB4FF0FF3061074FF0000102D447
:103D90000DE008F101018846B9420FDA8045F8DBF1
:103DA0001AF808100029F4D108E008F1010188464A
:103DB0008142FADB1AF808100029F6D105985B4613
:103DC000A0EB080721463846179A00F09EFA2844CF
:103DD00000EB080507E04DE02BE10DE01AF8010BC0
:103DE0005A4617999047B8F10108F7D25B46214629
:103DF0003846179A14E142E00A220092C4F30252B4
:103E00004FF0000A022A08D059F804CB032A4FEADF
:103E1000EC710AD00DE029E02AE009F1070121F058
:103E20000702F2E802C1914609E00FFA8CFC4FEA62
:103E3000EC71042A03D14FFA8CFC4FEAEC71002993
:103E400007DA0A460021DCF1000C61EB02012D22A9
:103E500002E0220504D52B228DF80420012203E084
:103E6000E20701D02022F7E7904653E00A2102E062
:103E700010220DE010214FF0000A00910BE01022FB
:103E80004FF0000A44F004040827009203E00822DF
:103E90004FF0000A0092C4F30252022A05D059F8EA
:103EA00004CB0021032A08D009E009F1070121F021
:103EB0000702F2E802C1914605E01FFA8CFC042AD1
:103EC00001D10CF0FF0C4FF00008220722D570281A
:103ED00027D0009B83F0100353EA0A0309D15CEA60
:103EE000010206D030228DF804208DF80500022250
:103EF0009046009B83F0080353EA0A030AD15CEA68
:103F0000010201D1620705D530228DF804204FF05F
:103F100001087F1E582809D037A003900EA80290F0
:103F200013E040228DF804200122E1E737A0F4E7F6
:103F300053466046009AFCF743F984460398825C36
:103F40000298A0F10100029002705CEA0100EFD13A
:103F5000029806A9A1EB000000F1200A600702D533
:103F600024F4803400E00127574502DDA7EB0A0066
:103F700000E0002000EB0A01009005984144A0EB0E
:103F800001000590E00306D45B462146179A059888
:103F900000F0BBF90544002706E001A85A46C05DC1
:103FA000179990476D1C7F1C4745F6DBE0030CD545
:103FB0005B462146179A059800F0A7F9054404E0EE
:103FC00030205A46179990476D1C0099481E009062
:103FD0000029F5DC08E0029802995A460078491C4D
:103FE0000291179990476D1CBAF10001AAF1010ADC
:103FF000F1DC6BE1092801003031323334353637DA
:104000003839616263646566000000003031323324
:1040100034353637383941424344454600000000C4
:1040200000F060F9054406F10106307800287FF4BD
:10403000E9AD19B02846BDE8F08F620700D4062725
:1040400009F1070222F0070CFCE80223E14603F025
:1040500000485FEA080C02D00FF27C2C0DE05FEA0A
:10406000045C02D50FF2742C07E05FEAC47C02D036
:104070000FF26C2C01E0AFF2700C4FF0FF3823F020
:104080000043CDF850C065280CD006DC452809D087
:1040900046281DD047283ED13EE0662818D0672824
:1040A00039D139E00021112F01DB112000E0781C0B
:1040B000CDE9000106A90EA8FFF7EEFCDDE90F012E
:1040C0000E9A03910021009207F1010A04914EE03B
:1040D0004FF000400097CDE9011006A90EA8FFF7A8
:1040E000DBFCDDE90F0203920E9B11990022DDF843
:1040F0000CA00093049219B907F1010100EB010A29
:10410000B7EB0A0004D4C0F1FF3007F1010A0490B4
:10411000AAEB0700019046E0012F00DA01270021F9
:10412000112F01DD112000E03846CDE9000106A97C
:104130000EA8FFF7B1FCDDE90F010E9A03910021F3
:1041400004910092BA4621070CD40399514500DA34
:104150008A46BAF1010F05DD009AAAF10101515C0E
:10416000302908D0B84202DA10F1040F06DA012132
:10417000CDE9011017E0AAF10101E9E7002805DC0B
:10418000049901440491AAEB000102E0411C51454D
:1041900000DD8A460499A0EB010000F101000190C6
:1041A0004FF000400290200704D40198504501DBF5
:1041B000CDF8048000208DF84F0002980DF14F07D4
:1041C000B0F1004F25D02B200E9002984FF002083E
:1041D00000280CDA404202902D200E9007E00A21C0
:1041E0000298FCF7F4F93031029007F8011DB8F19C
:1041F0000001A8F10108F2DC02980028EFD1791E35
:104200000E980870307800F0200040F0450007F864
:10421000020D12A8A0EB070000F10708149800781F
:1042200000B1012000EB0A01019801EBE071059853
:104230004144A0EB0100A0F101000590E00306D489
:104240005B462146179A059800F05FF805441498DC
:10425000007820B15A461799904705F10105E0030F
:1042600023D55B462146179A059800F04EF8054481
:104270001BE00498002807DBDDE90301884203DD29
:104280000098405C179901E0179930205A469047F2
:1042900004986D1C401C04900198401E019004D1AC
:1042A0002E205A46179990476D1CBAF10001AAF1C9
:1042B000010ADEDC05E017F8010B5A461799904712
:1042C0006D1CB8F10001A8F10108F4DC5B46214641
:1042D000179A0598A4E600002D0000002B000000AE
:1042E000200000002DE9F041044600251E46174637
:1042F000880405D406E039462020B04705F10105C1
:10430000641EF8D52846BDE8F0812DE9F041044649
:1043100000251E469046C80301D5302700E020271F
:10432000880405D506E041463846B04705F1010549
:10433000641EF8D52846BDE8F081000008B5544851
:10434000B0F90000A0F5E061B23900D108BD5148D4
:104350000088401C4F490880084600880A2190FBCD
:10436000F1F201FB120010B901204B4908704A48D4
:10437000007818B94948007800287DD000204649C7
:10438000087046490870464841490A680260496811
:104390004160444890ED000A414880ED020A4248DD
:1043A00090ED000A3E4880ED030A404890ED000A77
:1043B0003B4880ED040A3E4890ED000A384880ED05
:1043C000050A3C480068364988613B480068C86176
:1043D0003A48007881F820003948007881F82100B7
:1043E0002C4800883C2190FBF1F201FB120040B9FF
:1043F000344800682A49C1F8220001203249087077
:1044000003E000202649C1F8220030480068244912
:10441000C1F82A002E480068C1F826002D4890ED0A
:10442000000A8DED000A08460099C0F831102021DD
:104430002948FDF739F81A4981F82E00102126483D
:10444000FDF732F8164981F82F0008212248FDF7C0
:104450002BF8134981F83000002081F835001F48FF
:10446000407870B100201D49487038220C491B4823
:104470003B30FBF7D6FE00E008E00120084981F858
:104480003500382206491648FBF7CBFE00BF5DE732
:10449000C8000020300100202C0100202D01002048
:1044A000280D0020E0000020E4000020E8000020AB
:1044B000EC000020F4000020F0000020F8000020B4
:1044C000FC000020140100202E0100200C0100201F
:1044D0000001002018010020001002407C0C002088
:1044E000600D00203EB5044621466846FDF764FA9B
:1044F00000BF6846FCF7D8FD0028FAD13EBD000099
:104500002DE9F04180460C4615461E46002772B63E
:104510000A200A490870334607222946204601F03E
:104520003DFC08B9032705E044F6206001F0ECFCEF
:1045300000B9032762B63846BDE8F0810F020020BB
:104540002DE9F04104460D461646002772B60E4886
:104550000088032813DB0C4801880C48006801F030
:1045600066FA60B90948006800782070064800883B
:10457000801E308005480068401C286000E0052748
:1045800062B63846BDE8F08102020020FC0100203E
:104590002DE9F04104460D4616464FF0000872B66C
:1045A0001648007818BB681E154908600120154997
:1045B000088013480068047008460088304408806A
:1045C000084601880E48006801F031FA07460D4997
:1045D0000888411C0B4A11800B4909680F540120BF
:1045E0000A4908700121002001F04EFA01E04FF065
:1045F000050862B64046BDE8F081000001020020D7
:10460000080200200C020020FC0100200002002013
:1046100010B572B60021012001F036FA00200349DE
:10462000087062B6002001F0A1FB10BD010200205D
:1046300010B572B60021084601F026FA01F046FADC
:1046400062B610BD10B5002406480078012806D1D6
:1046500005480068804700200249087000E00624F1
:10466000204610BD38010020CC0100202DE9F05F6C
:1046700006460D464FF0000B2888052848D1707873
:104680004FEA0029B07840EA090909F101001FFA50
:1046900080F9F078040230790443012C35DBB4F55D
:1046A000FA6F32DA374600202880012007F8010B24
:1046B0002888401C288014F0070F08D02046E117F6
:1046C00004EB5171C910491C01F0FF0805E02046B8
:1046D000E11704EB5171C1F3C70807F8018B288873
:1046E000401C2880002322464946384600F03EFC04
:1046F0008246BAF1000F04D0504601F063F98346B8
:1047000008E028884044288004E04FF0030B01E0D3
:104710004FF0030B5846BDE8F09F2DE9F05F0646C9
:104720000D464FF0000B2888052847D170784FEAD6
:104730000029B07840EA090909F101001FFA80F95F
:10474000F078040230790443012C34DBB4F5FA6FBD
:1047500031DA374600202880022007F8010B28882C
:10476000401C288014F0070F08D02046E11704EB06
:104770005171C910491C01F0FF0805E02046E117FE
:1047800004EB5171C1F3C70807F8018B2888401C5E
:10479000288022464946384600F0EBFB8246BAF1B3
:1047A000000F04D0504601F00DF9834608E0288838
:1047B0004044288004E04FF0030B01E04FF0030B6E
:1047C0005846BDE8F09F2DE9F04705460C464FF0EE
:1047D000000A2088052837D168784FEA0028A87891
:1047E00040EA080808F101001FFA80F8E87806029C
:1047F0002E79012E25DB7D2E23DC2F460020208004
:10480000032007F8010B2088401C20807006000E52
:1048100007F8010B2088401C2080002332464146C7
:10482000384600F0A9FB8146B9F1000F04D0484694
:1048300001F0C8F8824609E0208800EB460020809D
:1048400004E04FF0030A01E04FF0030A5046BDE8D0
:10485000F0872DE9F04705460C464FF0000A208806
:10486000052837D168784FEA0028A87840EA080878
:1048700008F101001FFA80F8E8780602287906435B
:10488000012E24DB7D2E22DA2F46002020800420FA
:1048900007F8010B2088401C20807006000E07F8E6
:1048A000010B2088401C208032464146384600F0EB
:1048B000A1FB8146B9F1000F04D0484601F082F80F
:1048C000824609E0208800EB4600208004E04FF09B
:1048D000030A01E04FF0030A5046BDE8F0872DE9D6
:1048E000FC5F04460D460020009028880A285DDB06
:1048F00060784FEA002AA07840EA0A0A0AF101002B
:104900001FFA80FAE07806022079064360794FEAC0
:10491000002BA07940EA0B0B0BF101001FFA80FB82
:10492000E0790702207A0743607A0190012E3BDB91
:104930007D2E39DC012F37DB792F35DC79000198AA
:10494000814231D101233A46594604F10A0000F070
:1049500013FB8146B9F1000F1ED1A046002028802C
:10496000172008F8010B2888401C28807006000ECC
:1049700008F8010B2888401C288000233246514645
:10498000404600F0F9FA8146B9F1000F04D12888B9
:10499000022101FB06002880B9F1000F06D048462D
:1049A00001F010F8009001E0032000900098BDE8AD
:1049B000FC9F000070B505460C4606480288064973
:1049C000681CFBF72EFC03480088401C2080002058
:1049D00070BD000010020020C00E00202DE9F84339
:1049E00004460F464FF000083888052829D1607822
:1049F0000502A0780543681C85B22079F0B9E078FB
:104A0000FF2801D0E078C8B900208DF80100E078D7
:104A1000FF2803D101208DF8000002E000208DF86E
:104A2000000001231A462946684600F09FFA064610
:104A30004EB1304600F0C6FF804604E04FF0030858
:104A400001E04FF003084046BDE8F8832DE9F0414E
:104A500004460F464FF000083888052812D16078C8
:104A60000502A0780543681C85B201231A46294631
:104A7000E01C00F081FA064636B1304600F0A2FF95
:104A8000804601E04FF003084046BDE8F0812DE983
:104A9000F05F05460E464FF0000B3088052839DDE3
:104AA00068780702A8780743781C87B2E878040280
:104AB0002879044395F805A014F0070F08D0204684
:104AC000E11704EB5171C910491C01F0FF0805E022
:104AD0002046E11704EB5171C1F3C708012C16DB26
:104AE000B4F5F66F13DCD04511D1012322463946C7
:104AF000A81D00F03BFA8146B9F1000F04D04846EA
:104B000000F060FF834607E00520308004E04FF0AE
:104B1000030B01E04FF0030B5846BDE8F09F2DE971
:104B2000F04704460E464FF0000A3088062828DB7E
:104B300060780702A0780743781C87B2E078050206
:104B40002079054394F80590012D17DB782D15DCAD
:104B50006806000E484511D101232A463946A01D9A
:104B600000F00AFA8046B8F1000F04D0404600F089
:104B700029FF824607E00520308004E04FF0030A59
:104B800001E04FF0030A5046BDE8F0872DE9F047F9
:104B900005460C4616461F46DDF820904FF00008EB
:104BA0001CB1012C01DBF72C02DD4FF0020859E0AB
:104BB0002E48047015B1012D42D120E02C482D491A
:104BC00008602D482D4908602D482E4908602E4860
:104BD0002E49086000202E4908602E482E490860A2
:104BE0002E482F4908602F482F4908604B463A4607
:104BF00031461E48007800F007F9804623E02B4834
:104C00001C4908602A481D4908602A481D49086057
:104C100029481E49086000201D49086027481E4990
:104C2000086027481E49086026481F4908604B460F
:104C30003A4631460D480078FFF762FC804602E0B4
:104C40004FF0020800BF00BFB8F1000F0AD101F019
:104C500085F810B94FF0030804E01B4805700120E7
:104C60001A4908704046BDE8F0870000C5010020E1
:104C7000394F0008CC010020594F0008D001002016
:104C8000AD4E0008C8010020594E0008D401002094
:104C9000D8010020795F0008DC0100204160000895
:104CA000E001002001600008E40100201146000836
:104CB000314600089145000841450008F15A0008B6
:104CC000455C0008195C0008C6010020380100207E
:104CD00038B500254148007808B1062038BD68463F
:104CE00001F02AF8002877D09DF8000030B10128A3
:104CF00005D0022818D003286DD16BE06BE0384A4C
:104D000038493948394B1B68984705465DB93648DC
:104D1000007837490978884202D03348007810B9C2
:104D2000022001F023F856E02E480068007831494F
:104D30000870012030490870002417E02F4810F84F
:104D4000340000B914E02D4810F8340029490978DE
:104D500088420AD1294800EBC40021494268214811
:104D6000006890472449087002E0641C102CE5DBC1
:104D700000BF1D48007858B31F480078C8B1002014
:104D8000174908801B48007840F0800114480288C9
:104D90000088401C124B1880124800688154164845
:104DA0000278184601880088401C18800D48006869
:104DB000425413480078012800D100BF08480288F7
:104DC000084801680A4800780E4B1B68984705465A
:104DD00001E001E000BF00BF00207FE738010020B4
:104DE000C2010020BC010020C0010020D40100202D
:104DF000C5010020C1010020C40100203C010020A9
:104E0000C6010020C80100202DE9F04781460E466A
:104E100014461F464FF0000872B63B460822214652
:104E2000304600F0BBFF10B94FF003080EE0B4F5B8
:104E3000964F01D9232503E060000649B1FBF0F548
:104E4000A8B201F061F808B94FF0030862B6404615
:104E5000BDE8F087A07F17002DE9F04104460D461C
:104E600016464FF00008002772B60E480088042846
:104E700012DB0C4801880C4800F0EAFD60B90A48D2
:104E80000078207007480088C01E30800648401C0B
:104E900028604FF0010800E0052762B63846BDE8FB
:104EA000F0810000FA010020C00D00202DE9F04142
:104EB00005460E4617464FF0000872B619480078AE
:104EC000012829D1701E184908600120174908805F
:104ED0001548006805700846008838440880084670
:104EE00001881148006800F0B3FD04460F490888A6
:104EF000411C0E4B19800E490C5422121946088889
:104F0000411C19800A490A5401200A4908700121EC
:104F1000002000F0B9FD01E04FF0050862B6404600
:104F2000BDE8F081F1010020F4010020F80100202B
:104F3000C00D0020F001002010B572B60020054918
:104F400008700021012000F09FFD00F0C6FD62B650
:104F500010BD0000F101002010B572B60021084616
:104F600000F092FD00F0B2FD62B610BD10B504462F
:104F700010BD034601207047F0B504460D460020E1
:104F8000012D31DBAE18152E2EDC184E3688A91BEC
:104F900013B1012B27D111E00DE0154E36F8116049
:104FA000361204F8016B124E16F8116004F8016B0A
:104FB000491C561EB2B2002AEFDC14E010E014F8CF
:104FC000017B3E020A4F27F8116014F8016B37F895
:104FD00011703E43064F27F81160491C561EB2B2AD
:104FE000002AECDC00BF00E00120F0BD340100200D
:104FF000980D00200346704770B504460D46E1B297
:105000000548FEF7D8FB00BF40210348FEF708FB28
:105010000028F9D0204670BD00480040F0B5054694
:105020000A462E6840F2B2715848B6FBF0F700FB12
:105030001764B6FBF0F33C20B4FBF0F700FB17401D
:1050400010604FF46160B4FBF0F700FB17403C27A1
:10505000B0FBF7F050604FF46160B4FBF0F090608B
:10506000181D0727B0FBF7FC07FB1C0090611BE035
:105070000846CF1701EB9777BF10B1EB87070FD129
:10508000642791FBF7FC07FB1C1737B94FF4C8776F
:1050900091FBF7FC07FB1C1717B94FF4B77701E03A
:1050A00040F26D17DB1B491CCF1701EB9777BF1040
:1050B000B1EB87070FD1642791FBF7FC07FB1C17A7
:1050C00037B94FF4C87791FBF7FC07FB1C1717B9EA
:1050D0004FF4B77701E040F26D179F42C8D9A1F2B3
:1050E0006C705061D3610020106125E00846CF1735
:1050F00001EB9777BF10B1EB87070ED1642791FBC7
:10510000F7FC07FB1C1737B94FF4C87791FBF7FC86
:1051100007FB1C170FB9012700E0002707EB470723
:10512000DFF86CC00CEB0717D2F810C057F82C70E2
:10513000DB1B1069401C1061CF1701EB9777BF1084
:10514000B1EB87070ED1642791FBF7FC07FB1C1717
:1051500037B94FF4C87791FBF7FC07FB1C170FB961
:10516000012700E0002707EB4707DFF824C00CEB1E
:105170000717D2F810C057F82C709F42B6D9581CA8
:10518000D060002010621046F0BD00008051010088
:10519000AC60000810B54FF44070FCF757FCFDF709
:1051A0009DFC0121C802FCF7C5FC4FF4C070FEF75E
:1051B00019FB5020FEF722FB7F20FEF703FB4FF484
:1051C000FA60FFF78FF94FF416510248FEF7DCF84A
:1051D00010BD00000048004000BF00BF00BF00BF7E
:1051E00000BF00BF00BF00BF00BF00BF704700008E
:1051F0002DED028B84B0FFF7CDFFFDF75DFAFDF7D3
:1052000061FEFCF755FDFCF749FD00204FF41653F5
:1052100002466E210090FFF7B9FCFFF713FA002158
:105220003C48FCF7C9FB3CA0FEF716FC01204049B6
:105230000870FDF758FD044621463E48FCF7BCFBCC
:105240000120FDF750FD0446214601A8FCF7B4FB00
:105250005FE000203849088001A8FBF725FF0028FF
:1052600052D1FDF749FA35480068FBF781F941EC66
:10527000100BB0EE408AF0EE608A53EC182B30A091
:10528000FEF7EAFB30480068FBF772F941EC100BBF
:10529000B0EE408AF0EE608A53EC182B2BA0FEF79C
:1052A000DBFB2C4801682CA0FEF7D6FB2D480168DB
:1052B0002DA0FEF7D1FB3048016830A0FEF7CCFBF3
:1052C0003248016832A0FEF7C7FB35480068FBF79B
:1052D0004FF941EC100BB0EE408AF0EE608A53ECCF
:1052E000182B30A0FEF7B8FB3148018831A0FEF73B
:1052F000B3FB2EA0FEF7B0FB0120FDF7F4FC044643
:10530000214601A8FCF758FB2D480078401C2C4989
:1053100008709EE7B00200200A0A53797374656D25
:1053200020496E697420446F6E65210A00000000F8
:10533000110000201C06002012000020E0000020C8
:105340002A433A2025660A00E4000020483A202536
:10535000660A0000F40000206C75783A2025640A83
:1053600000000000140100207261696E53756D3AEF
:105370002025640A000000000C01002077696E649B
:1053800053706565643A2025640A0000000100201E
:1053900077696E644469723A2025640A000000004F
:1053A00018010020766F6C743A2025660A00000010
:1053B000140000207273743A2025640A0000000073
:1053C0002C00002010B5FFF783FC1D4890ED000A6B
:1053D000F2EE040A20EE200ABCEEC00A10EE100A1B
:1053E00018490880184890ED000AF2EE040A20EEF1
:1053F000200ABCEEC00A10EE100A4880134800884C
:10540000888013480088C8801248008808811248A4
:1054100000884881114890ED000AF2EE040A20EE5F
:10542000200ABCEEC00A10EE100AC8810846808926
:1054300020B10020064908600249888110BD0000A3
:10544000E0000020980D0020E4000020F40000207F
:10545000140100200C010020000100201801002090
:105460002DE9FC4F01464FF03C09086890FBF9F02C
:10547000D1F80490484448604FF03C09086890FB1C
:10548000F9FA09FB1A0008600868002805DA0868BC
:105490003C3008604868401E48604FF03C0948684E
:1054A00090FBF9F0D1F80890484488604FF03C092F
:1054B000486890FBF9FA09FB1A0048604868002820
:1054C00005DA48683C3048608868401E88604FF0C4
:1054D0001809886890FBF9F3886890FBF9FA09FBD2
:1054E0001A0088608868002803DA886818308860A5
:1054F0005B1E4FF00C09086990FBF9F0D1F814908D
:10550000484448614FF00C09086990FBF9FA09FB1F
:105510001A0008610869002805DA08690C3008617A
:105520004869401E4861C868401E03443FE008695E
:10553000401E086104D54869401E48610B2008617F
:10554000D1F8149009F26C704FEAE07900EB997988
:105550004FEAA909B0EB89091CD1D1F8149009F2DE
:105560006C794FF0640A99FBFAFB0AFB1B99B9F1BD
:10557000000F0CD1D1F8149009F26C794FF4C87A6D
:1055800099FBFAFB0AFB1B99B9F1000F02D14FF00E
:10559000010901E04FF0000909EB4909DFF864A3B4
:1055A0000AEB0919D1F810A059F82A904B44002BA6
:1055B000BDDB41E0D1F8149009F26C704FEAE0795C
:1055C00000EB99794FEAA909B0EB89091CD1D1F810
:1055D000149009F26C794FF0640A99FBFAFB0AFB0C
:1055E0001B99B9F1000F0CD1D1F8149009F26C7924
:1055F0004FF4C87A99FBFAFB0AFB1B99B9F1000F2B
:1056000002D14FF0010901E04FF0000909EB49090F
:10561000DFF8F0A20AEB0919D1F810A059F82A9086
:10562000A3EB09030869401C08610C2804D1002081
:1056300008614869401C4861D1F8149009F26C7007
:105640004FEAE07900EB99794FEAA909B0EB8909B3
:105650001CD1D1F8149009F26C794FF0640A99FBCF
:10566000FAFB0AFB1B99B9F1000F0CD1D1F8149089
:1056700009F26C794FF4C87A99FBFAFB0AFB1B9983
:10568000B9F1000F02D14FF0010901E04FF000091C
:1056900009EB4909DFF86CA20AEB0919D1F810A04F
:1056A00059F82A90994585DD581CC86040F2B274BB
:1056B000A4F26C70D1F81490814503DA4FF0FF30FA
:1056C000BDE8FC8F002500BF0026486900F26C721F
:1056D000101BDFF83492484500DD761C101B40F2A9
:1056E0006D1900FB09F3101B6FF00049A9EB0309CA
:1056F0004FEAE07A00EB9A7A4FF0010B0BEBAA0A23
:10570000D14501DA701C06464FEAE27A02EB9A7A3A
:105710004FEAAA0A0192B2EB8A0A16D091464FEAE2
:10572000E27A02EB9A7A4FEAAA0AA2EB8A0A2046A8
:105730004FEAE47B04EB9B7B4FEAAB0BA4EB8B0BB8
:10574000DA4502DA4FF0010B01E04FF0000BA2EB5B
:10575000040A4FEAEA7ECDF800A00AEB9E7A0BEB32
:10576000AA0A5344101B4FF0640990FBF9F092FB16
:10577000F9FA09FB1A29B9F1000F10D04FF06409AA
:1057800092FBF9FA09FB1A294FF0640A94FBFAFB21
:105790000AFB1B4AD14502DA4FF0010901E04FF044
:1057A000000948441B1A101B4FF4C87990FBF9F00C
:1057B00092FBF9FA09FB1A29B9F1000F10D04FF446
:1057C000C87992FBF9FA09FB1A294FF4C87A94FBBD
:1057D000FAFB0AFB1B4AD14502DA4FF0010901E04E
:1057E0004FF00009484403440027BC462BE0104614
:1057F0004FEAE27902EB99794FEAA909B2EB8909FC
:1058000014D14FF0640992FBF9FA09FB1A29B9F196
:10581000000F08D14FF4C87992FBF9FA09FB1A2955
:10582000B9F1000F02D14FF0010901E04FF000097A
:1058300009EB4909DFF8CCA00AEB091959F82C90BB
:105840004F440CF1010C08696045D0DCC868401E6B
:105850000744D81900D5761C3B44CF61181D4FF082
:10586000070990FBF9FA09FB1A008861D1E90109DF
:10587000C9EB091900EB8900C0EB0010D1F80090CA
:1058800009EB80056FF00040401BDFF8809090FB33
:10589000F9F0984200DA761C40F2A320584305EB59
:1058A000C0151B480068002807DD194800686FF024
:1058B0000049A9EB0000A84208DB15480068002851
:1058C00005DA134800684042854200DA761C104829
:1058D00000680544086A18B10E48D0F8008001E05D
:1058E0004FF00008A84500DD761CA5EB080516B1B1
:1058F0004FF0FF30E4E6AD4202D04FF0FF30DFE67C
:105900002846DDE6AC6000087CC6590080510100E5
:10591000C4000020C00000202DE9FC4104460D46D3
:1059200016461F462048844204D101210846FCF750
:1059300001F92EE01D48844204D101210220FCF728
:10594000F9F826E01A48844204D101210420FCF72A
:10595000F1F81EE01748844204D101210820FCF729
:10596000E9F816E01448844204D101211020FCF724
:10597000E1F80EE01148844204D101212020FCF717
:10598000D9F806E00E48844203D101214020FCF7FB
:10599000D1F800958DF804608DF8057069462046B1
:1059A000FBF70EFDBDE8FC81000002400004024050
:1059B00000080240000C02400010024000140240A7
:1059C00000180240014621B1012904D0072906D15F
:1059D00003E0002005E0022003E0062001E00420AF
:1059E00000BF00BF70470146092903DC01F1300008
:1059F000C0B270470A2905DB0F2903DC01F137002B
:105A0000C0B2F6E73020F4E70146302905DB39293A
:105A100003DCA1F13000C0B27047412905DB462903
:105A200003DCA1F13700C0B2F6E7FF20F4E710B5C0
:105A30000246002003E012F8014B2318D8B20B00F5
:105A4000A1F10104A1B2F6D14342D8B210BD0000C9
:105A500070B502460C46FF25FF2309E012F8010B42
:105A600080EA03010648405C80EA05030548455C7E
:105A70002000A4F10106B4B2F0D143EA052070BDC4
:105A80000C6100080C62000870B505460C4635B183
:105A9000012240F225510C48FDF7F9FD05E00022F6
:105AA00040F225510848FDF7F2FD34B1012240F2E1
:105AB00027710548FDF7EBFD05E0002240F2277154
:105AC0000148FDF7E4FD70BD0014014010B5002150
:105AD0004FF08040FDF70FF910BD10B500214FF0D9
