:020000040800F2
:10000000381D00209D010008B3190008B91600082A
:10001000AF190008251000085B3700080000000039
:100020000000000000000000000000000926000899
:100030009512000800000000F51A0008C929000800
:10004000B7010008B7010008B7010008B7010008B0
:10005000B7010008B7010008B7010008B7010008A0
:10006000B7010008B701000899120008B70100089D
:10007000B7010008B7010008B7010008B701000880
:10008000B7010008B7010008B7010008B701000870
:10009000B7010008B7010008B7010008B91200084D
:1000A000B7010008B7010008B7010008B701000850
:1000B000292B0008492B0008B7010008B7010008E8
:1000C000B7010008B7010008B7010008B701000830
:1000D000B701000885330008B5330008DD33000898
:1000E000B7010008B7010008B7010008B701000810
:1000F000B7010008B7010008B7010008B701000800
:10010000B7010008B7010008B7010008B7010008EF
:10011000B701000825320008B7010008B701000840
:10012000B7010008B7010008B7010008B7010008CF
:10013000B7010008B7010008B7010008B7010008BF
:10014000B7010008B7010008B7010008B7010008AF
:10015000B7010008B7010008B70100082134000802
:10016000B7010008B7010008B7010008B70100088F
:10017000B7010008B7010008B7010008B70100087F
:10018000B7010008B7010008DFF80CD000F02AFB27
:10019000004800475D510008381D00200648804790
:1001A00006480047FEE7FEE7FEE7FEE7FEE7FEE75C
:1001B000FEE7FEE7FEE7FEE7C12A00088901000826
:1001C0002DE9F05F0546002092469B46884606468C
:1001D000814640241BE0284641464746224600F01F
:1001E0001BFA53465A46C01A914110D3114618467D
:1001F000224600F002FA2D1A67EB01084F4622460C
:100200000120002100F0F9F917EB00094E41201EF2
:10021000A4F10104DFDC484631462A464346BDE8E6
:10022000F09F40EA01039B0703D009E008C9121FB1
:1002300008C0042AFAD203E011F8013B00F8013BA0
:10024000521EF9D270472DE9FE4F804681EA030025
:10025000C00F0C46009021F0004123F00045B8EBA0
:100260000200A94105D24046214690461C460B4655
:10027000024623F00040104347D0270DC7F30A0081
:10028000C3F30A510290401A019040286BDAC3F37D
:10029000130040F4801B0098924620B10023D2EB5B
:1002A000030A63EB0B0B01985946C0F1400250461C
:1002B00000F0A3F906460D4650465946019A00F053
:1002C000BBF910EB08006141002487EA115284EA6F
:1002D000E7731A4340D0009A62B3019A012A4FEAA9
:1002E000075215DC001B61EB02014FF0004202EAED
:1002F0000752CDE90042001C41F5801132462B46E1
:1003000000F0F2F903B0BDE8F08F40462146F9E76E
:10031000001B61EB0201001C41F5801300185B41DA
:100320002018A2F5001747EB030140EAD570B61973
:100330006D4111E06D084FEA360645EAC0754FEA97
:100340000752001B61EB0201001C41F580114908B6
:100350004FEA30000019514132462B4603B0BDE848
:10036000F04F00F0B2B90098012240000023D0EB1A
:10037000020263EBE073009821464FEAE074B8EBA9
:10038000000061EB0401E9E783F000435BE781F0E3
:10039000004158E72DE9FE4F81EA030404F00044D0
:1003A00021F0004100944FF0000B23F0004350EA8D
:1003B00001045ED052EA03045BD0C3F30A54C1F3D4
:1003C0000A552C44A4F2F3340194A0FB0254C1F367
:1003D000130141F48011C3F3130343F4801301FBB1
:1003E000024400FB034E840A970A44EA815447EA18
:1003F0008357A4FB076802958D0A05FB07854FEA22
:10040000932C04FB0C542705029D4FEA065847EA3B
:100410001637B5EB08056EEB070C870E920E47EA10
:10042000811742EA8312A7FB0201B6EB0B0164EBD2
:1004300000042B0D43EA0C335E1844EB1C50DA46E3
:100440005146E7FB0201C5F313044FEA0B3343EABD
:1004500014534FEA0432019C43EA0603A4F10C044E
:100460000294009CCDE900B400F03EF903B0BDE871
:10047000F08F00200146F9E72DE9F04D81EA0304F1
:1004800004F0004B21F0004514464FF0000A23F021
:10049000004150EA050220D054EA01021DD0C5F304
:1004A0000A570246C5F31303C1F31300C1F30A56FA
:1004B00040F4801543F48013A7EB0608101BD646C2
:1004C00008F2FD3873EB050002D308F1010801E0E2
:1004D00092185B41B8F1000F03DA00200146BDE835
:1004E000F08D00204FF48011064684460EE0171B65
:1004F00073EB050705D3121B63EB050306434CEAB8
:10050000010C49084FEA300092185B4150EA01079C
:10051000EDD152EA030012D082EA040083EA050119
:10052000084305D0101BAB4106D20122002306E090
:1005300000224FF0004302E06FF0010253101AEB6B
:1005400006004CEB085110EB0A0041EB0B01BDE833
:10055000F04D00F0BAB80EB540F2334102910021DF
:10056000CDE900110A460B4600F0BEF803B000BD0D
:1005700000F0004230F000400AD0C10D01F560717A
:10058000C0F3160042EA0151C20840071143704708
:1005900000200146704701F0004330B421F00041D3
:1005A00050EA010206D00A0DA2F56072C1F31301F0
:1005B000002A02DC30BC00207047440F44EAC1042A
:1005C000C100E01830BC00EBC25000F047B830B5B5
:1005D0000B46014600202022012409E021FA02F501
:1005E0009D4205D303FA02F5491B04FA02F528449B
:1005F000151EA2F10102F1DC30BD202A04DB203AF5
:1006000000FA02F1002070479140C2F1200320FA65
:1006100003F3194390407047202A04DB203A21FA63
:1006200002F00021704721FA02F3D040C2F120020B
:100630009140084319467047202A06DBCB17203A21
:1006400041FA02F043EAE07306E041FA02F3D040D7
:10065000C2F1200291400843194670470029A8BF03
:100660007047401C490008BF20F00100704710B4DB
:10067000B0FA80FC00FA0CF050EA010404BF10BC90
:10068000704749B1CCF1200421FA04F411FA0CF1BD
:1006900018BF012121430843A3EB0C01CB1D4FEAF6
:1006A00000614FEA102042BF002010BC704700EBF1
:1006B000C35010440029A4BF10BC7047401C49001F
:1006C00008BF20F0010010BC704710B5141E73F174
:1006D000000408DA401C41F1000192185B411A4302
:1006E00001D120F0010010BD2DE9F04D92469B464E
:1006F00011B1B1FA81F202E0B0FA80F220329046F4
:10070000FFF77BFF04460F4640EA0A0041EA0B016F
:1007100053465A46084313D0114653EA010019D0F4
:10072000C8F140025046FFF777FF05460E46504697
:1007300059464246FFF761FF084305D0012004E017
:1007400020463946BDE8F08D0020054346EAE076B4
:100750002C4337430A986305E40AA0EB0800002203
:10076000FD0A44EA47540A3002D500200146E9E771
:10077000010510196941DDE9084500196941BDE825
:10078000F04DA2E7C1F30A52C1F3130140F2FF3367
:1007900041F480119A4202DA00200146704740F28B
:1007A00033439A42A2F2334202DC5242FFF734BF93
:1007B000FFF723BF30B5041E71F1000404DB4FF0D6
:1007C0000044404264EB0101141E73F1000405DB98
:1007D0001C464FF00043524263EB0403994208BFAA
:1007E000904230BD064C074D06E0E06840F0010342
:1007F00094E8070098471034AC42F6D3FFF7C8FCE2
:1008000080640008A064000870B58C1810F8015BC3
:1008100015F0070301D110F8013B2A1106D110F899
:10082000012B03E010F8016B01F8016B5B1EF9D19D
:100830002B0705D40023521E0DD401F8013BFAE723
:1008400010F8013BCB1A921C03E013F8015B01F88E
:10085000015B521EF9D5A142D8D3002070BD000023
:100860000146DFED170AB0EE600A00EE901AB8EE0E
:10087000601ADFED141AC1EE210A9FED131A60EE23
:10088000810AB0EE600AB5EEC00AF1EE10FA05D2A8
:10089000DFED0D0A70EE200AB0EE600ADFED0A0A05
:1008A000B4EEE00AF1EE10FA05DDDFED070A70EEB6
:1008B000600AB0EE600AFDEEC00A10EE900A7047C2
:1008C0000000000000F07F450000B44370B51E48F2
:1008D000006864281CD1002415E01C4800EBC4000B
:1008E000D0E9005118480268D3172846FFF768FC82
:1008F000174921F814000021144A02EBC4021160C8
:100900005160601CC4B2032CE7DB00200E49086074
:100910000D480068401C0C490860002011E00B499C
:1009200001EBC001D1E900410A4A32F81020A218B7
:1009300041F10001054B03EBC003C3E90021411C59
:10094000C8B20328EBDB70BDB8000020580C0020B3
:10095000B2000020AC00002021B1826842F0010208
:10096000826003E0826822F001028260704700002A
:100970000021084A1168084A1140D0E900231A43AF
:1009800083681A43C3681A431143044AC2F8041324
:100990007047000004230140E030FCFF00200140CC
:1009A00000B59BB00121880501F0B0F8012108468F
:1009B00001F0ACF80121080201F0D8F807200090FE
:1009C00003208DF8040002208DF80700694639489D
:1009D00000F0E6FC384800F085FB00200290374824
:1009E00003903748049000200590032006900020D3
:1009F00007904FF4806008904000099080000A90B2
:100A000040110B9040020C9000200D9001200E90A0
:100A100000200F90109002A9274800F00FFC012140
:100A2000254800F054FB00F063F80020119012906C
:100A30001390149011A8FFF79BFF00201590012040
:100A40008DF858008DF85900002017901990032058
:100A50008DF8680015A919484C3800F055F80223A4
:100A60000122002115484C3800F078F802231A467C
:100A7000012112484C3800F071F802230322194674
:100A80000E484C3800F06AF801210C484C3800F050
:100A900024F8012109484C3800F014F801210748D6
:100AA0004C38FFF759FF05484C3800F0B3F81BB03D
:100AB00000BD000000000240106402404C200140D4
:100AC000AC00002021B1826842F48072826003E0B1
:100AD000826822F480728260704721B1826842F499
:100AE0000072826003E0826822F4007282607047C4
:100AF00010B50121080201F049F800214FF480707F
:100B000001F044F810BD000030B50246002000237B
:100B10005068104C20400D790C6844EA05242043AD
:100B2000506090680C4C2040D1E903542C438D68F0
:100B30002C434D7944EA450420439060D06A20F468
:100B400070000C7D641EE4B2234340EA0350D0627F
:100B500030BD0000FFFEFFFCFDF7FFC0F0B504460E
:100B60000D4600200021092D11DDE068A5F10A06DF
:100B700006EB4607072606FA07F18843A5F10A06A1
:100B800006EB460603FA06F10843E0600CE0206934
:100B900005EB4507072606FA07F1884305EB4506EE
:100BA00003FA06F108432061072A0FDA606B561E2C
:100BB00006EB86071F2606FA07F18843561E06EB4A
:100BC000860605FA06F10843606322E00D2A0FDA73
:100BD000206BD61F06EB86071F2606FA07F188430F
:100BE000D61F06EB860605FA06F10843206310E0DF
:100BF000E06AA2F10D0606EB86071F2606FA07F14A
:100C00008843A2F10D0606EB860605FA06F10843B5
:100C1000E062F0BD816841F0804181607047000072
:100C200010B520220A490B4801F05AF800240CE0C4
:100C300004EB4402084B03EB0221084A02EB0410C8
:100C40004FF4407201F04CF8641C002CF0D010BD41
:100C5000C1150020E41500202416002014160020E1
:100C600070B505463C48006820B901203A49086043
:100C7000FFF7D6FF39480078012830D002285CD130
:100C8000002429E004EB8400354901EB800035495C
:100C900051F82410405CA84219D1324850F8240081
:100CA000401C304941F8240004EB84002C4901EB3E
:100CB00080002C4951F82410405C60B92A490C701E
:100CC00001202649087000202849086003E0002020
:100CD000244941F82400641C182CD3D33AE022485C
:100CE000007800EB80001E4A02EB80000169284674
:100CF000884758B9022019490870002404E00020F0
:100D0000184941F82400641C182CF8D317480068CF
:100D1000401C1649086008460068B0F5407F0BD3B8
:100D200002200E490870002404E000200D4941F81B
:100D30002400641C182CF8D30CE00220074908702A
:100D4000002404E00020074941F82400641C182C0A
:100D5000F8D300BF00BF70BD840200203402002021
:100D60008462000840140020370200206402002042
:100D700010B50446012000F0E7F8642003F068FB9A
:100D8000204600F004F8642003F062FB10BD10B5AB
:100D90000446202C0FD006DC102C09D0112C08D0D2
:100DA000132C11D106E0212C06D0232C0CD104E009
:100DB00000BF00BF00BF00BF00BF204600F0C4F866
:100DC0000A2003F045FB00E000BF00BF10BD00009B
:100DD000F0B52DED068B85B0044602259FED540A33
:100DE000B0EE408A04AF642101A800F0D5FD04E014
:100DF00001A800F049F900B995E04FF400314D48E1
:100E000000F02AFD0028F3D101214A4800F0AEFC91
:100E10000121484800F008FD642101A800F0BCFD54
:100E200004E001A800F030F900B97CE042494148F3
:100E300000F0A8FC0028F4D0012246213D4800F033
:100E4000A1FD642101A800F0A7FD04E001A800F0C5
:100E50001BF900B967E03849491C364800F092FC9C
:100E60000028F3D032E0012D18D10021314800F0E4
:100E70007DFC01212F4800F0E3FC642101A800F073
:100E80008BFD04E001A800F0FFF800B94BE02B490E
:100E9000284800F0E1FC0028F4D100BF642101A83B
:100EA00000F07AFD04E001A800F0EEF800B93AE0A5
:100EB00021493F311F4800F065FC0028F3D01D4850
:100EC00000F05CFD38707F1C681EC5B2002DCAD1D1
:100ED0000121184800F04AFC9DF811009DF81010FF
:100EE00040EA012600EE106AB8EE400A10EE100A41
:100EF000FFF73EFB41EC1A0B9FED110B53EC102B4F
:100F0000FFF7BAFA41EC190BFFF745FB08EE100AA0
:100F1000BCEEC80A10EE100A80B22060002005B0B6
:100F2000BDEC068BF0BD4FF0FF3020600120F6E7EE
:100F300000000000005400400100030010000010F9
:100F4000333333333333F33F3EB504460121244872
:100F500000F00CFC0121224800F066FC6421684688
:100F600000F01AFD04E0684600F08EF800B935E0A4
:100F70001C491B4800F006FC0028F4D00022462142
:100F8000174800F0FFFC6421684600F005FD04E00E
:100F9000684600F079F800B920E01349104800F0E5
:100FA000F1FB0028F4D021460D4800F0F3FC642149
:100FB000684600F0F1FC04E0684600F065F800B90E
:100FC0000CE00949891C064800F0DCFB0028F3D03E
:100FD0000121034800F034FC01203EBD0020FCE765
:100FE0000054004001000300820007003EB50446A3
:100FF000204600F063FB6421684600F0CDFC04E06D
:10100000684600F041F800B907E04FF400310448A9
:1010100000F022FC0028F3D13EBD0120FCE70000D7
:101020000054004000BFFEE701460020014A107056
:10103000704700004402002001460020014A107061
:10104000704700003102002001460B480B4A12682D
:1010500081540D290ED10022034608480068401C27
:101060001A540120064A107004480078054A10708E
:1010700000207047FF20FCE7C0130020640200201E
:10108000350200203602002070B50446D4E9000184
:101090004518A068A84201D000F0E6FC00F006FB6D
:1010A0000546D4E900010844A0602068A84202D89F
:1010B00020682E1A03E02068C0F1FF3046196068EE
:1010C000B04201D8002070BD6068801BFBE721B1F1
:1010D000026842F00102026003E0026822F00102AD
:1010E00002607047016821F0010101600021016088
:1010F00041608160C1600161212141614A498842AA
:1011000004D13D21484A103A91608CE0464918319B
:10111000884205D14FF47461434A103A916082E0ED
:1011200041493031884205D14FF474113E4A103A9A
:10113000916078E03C494831884205D14FF07461B4
:10114000394A103A91606EE037496031884204D1E3
:101150003649354A103AD16065E0334978318842E2
:1011600004D13349304A103AD1605CE02E499031C5
:10117000884204D12F492C4A103AD16053E02A49C1
:10118000A831884205D14FF03D51274A103AD1602D
:1011900049E02949884204D13D21274A083A116093
:1011A00041E025491831884205D14FF47461224A43
:1011B000083A116037E020493031884205D14FF4B8
:1011C00074111D4A083A11602DE01B4948318842CC
:1011D00005D14FF07461184A083A116023E01649AE
:1011E0006031884204D11149134A121F11601AE07C
:1011F00011497831884204D10D490F4A121F1160FC
:1012000011E00D499031884204D10A490A4A121F5F
:10121000116008E00849A831884204D14FF03D51DF
:10122000054A121F11607047106002403D00002007
:10123000400F002000003D201064024010B5002245
:101240000268134B1A40CC680B6823434C69234354
:101250008C692343CC6923430C6A23434C6A2343A0
:101260008C6A23434C6B23438C6B23431A430260E9
:10127000426922F00702D1E90B3423431A43426149
:101280000B6943604B6883608B68C36010BD0000CE
:101290003F801CF07047000010B5102000F022F8CD
:1012A00038B1102000F018F802480068401C0149CD
:1012B000086010BDD400002010B5202000F012F806
:1012C00038B1202000F008F802480068401C0149AD
:1012D000086010BD1401002001490860704700003B
:1012E000143C0140014600200022074B1B6803EA22
:1012F0000102054B14331B680B4013B10AB10120E6
:1013000000E0002070470000003C0140002123491C
:101310008279002A3AD00A46126803689A430B463B
:101320001A600A1D126803689A430B1D1A6002793D
:1013300011440A6803681A430A60184A083212689E
:1013400003689A43154B08331A601A1D1268036824
:101350009A43124B0C331A604279102A0ED11A1F8D
:10136000126803681A430D4B08331A601A1D12687D
:1013700003681A43094B0C331A600DE007494279A0
:1013800011440A6803681A430A6005E002791144AF
:101390000A6803689A430A6070470000003C0140F5
:1013A000F0B50A4600210023002400BF3DE00125DE
:1013B00005FA01F3156805EA03049C4234D1056877
:1013C0004F000326BE40B543056015794E00B54079
:1013D0000668354305601579012D02D01579022D77
:1013E00016D185684F000326BE40B5438560557908
:1013F0004E00B540866835438560456801268E40BD
:10140000B5434560456896798E40B6B23543456030
:10141000C5684F000326BE40B543C560D5794E0070
:10142000B540C6683543C560491C1029BFD3F0BD1F
:10143000F0B5002300244D07ED0E02FA05F3CE109F
:1014400000F1200555F826504E07F70E0F26BE4036
:10145000B543CF1000F1200646F82750CE1000F11A
:10146000200555F8265045EA0304CE1000F120056A
:1014700045F82640F0BD0246002013690B400BB131
:10148000012000E0002070470246002053690B4015
:101490000BB1012000E0002070474FF6FF710160A2
:1014A0000021017141718171C17170470AB10183DD
:1014B00000E041837047000001460020034A10709D
:1014C0000120034A10700020704700002B0200200A
:1014D0002A02002010B504464048006820B10128C7
:1014E00012D0022821D114E0A4F13001C8B200F0DA
:1014F00087FC3B4908600846006808B1002010BD21
:1015000001203849087066E02C2C01D00020F6E755
:1015100061E0302C06DD392C04DCA4F130003249C6
:10152000086001E00020EAE755E02E480078012835
:1015300004D002281FD003284BD128E0302C0FDB29
:10154000392C0DDC2848006800EB8000400026495B
:101550000860A4F13000096808442349086009E0E4
:101560003A2C07D00D2C03D102201E49087001E04F
:101570000020C4E72DE00A2C06D103201949087089
:1015800000201A49086001E00020B8E721E0174870
:101590000068401C154908601549114A126801EBA2
:1015A0000210214600F0ABFB0F480068401E0E49B8
:1015B00008600846006858B901200E4908800E49A5
:1015C000074A12688854042006490870002096E7EC
:1015D00000BF00BF00BF00BFFF2090E764020020F3
:1015E0006C02002074020020800200204C020020C7
:1015F00014160020500200205202002001461A4812
:10160000006810B1012802D100E000BF29E01648AF
:101610000068062803D30020144A10607047302960
:101620000FDB39290DDC1148006800EB8000400019
:101630000E4A1060A1F13000126810440B4A10608D
:101640000EE00A48006838B108480068642803D2F0
:1016500006480068064A10600020044A1060DDE772
:1016600000BF00BFFF20D9E76402002078020020FD
:10167000240200200146302906DB392904DC064813
:10168000064A1268815404E00120054A10600020D7
:101690007047FF20FCE70000A01400206402002037
:1016A0004002002001460020704700000148006809
:1016B000704700008800002000BFFEE710B586B02C
:1016C00004460121480500F031FA0121022000F012
:1016D0002DFA0121880300F049FA0121480500F0A4
:1016E00035FA00214FF4001000F030FA4FF440704A
:1016F000049002208DF814008DF8150001208DF85B
:10170000160000208DF8170004A91648FFF748FEC0
:10171000042208211348FFF78BFE042209211148F7
:10172000FFF786FE104800F04FF80020ADF80400E7
:101730004BF6FF70ADF806000020ADF808004FF43E
:101740008060ADF80A000001ADF80C0000940121A2
:10175000054800F02CF86946034800F09BF806B0F5
:1017600010BD0000000402400054004021B1028876
:1017700042F48062028004E002884FF6FF331A4090
:101780000280704770B50246002400250023002027
:10179000958A138B1B0445EA030626F07F4404EA6E
:1017A00001068E4201D1012000E0002070BD21B170
:1017B000028842F00102028004E002884FF6FE73C4
:1017C0001A4002807047000010B504461348844256
:1017D00009D10121480500F0B9F900214FF40010AA
:1017E00000F0B4F918E00E48844209D101218805BF
:1017F00000F0ACF900214FF4800000F0A7F90BE0F5
:101800000848844208D10121C80500F09FF9002151
:101810004FF4000000F09AF910BD000000540040A1
:1018200000580040005C004021B1028842F4807200
:10183000028004E002884FF6FF631A40028070477E
:1018400021B1028842F40072028004E002884FF65F
:10185000FF531A40028070470CB502460020002357
:101860000193009300920B0F019321F07F41019BA4
:101870001BB1009B1433009303E0090C009B183349
:101880000093009B1B680B400BB1012000E000207F
:101890000CBD00002DE9FF4704460D460026B14669
:1018A0000427DFF8CC80A6884FF6C0700640684653
:1018B00000F07CF9DDF808802E48B8FBF0F01FFA44
:1018C00080F946EA0906A68020884FF6FE71084096
:1018D000208000262849286888420CD828684000C3
:1018E000B8FBF0F087B2042F00DA04273E4309F179
:1018F0000100208427E0E8884BF6FF71884206D17A
:10190000286800EB4000B8FBF0F087B209E02868D7
:1019100000EBC00101EB0010B8FBF0F087B247F418
:101920008047C7F30B0008B947F0010747F40040B0
:1019300006434FF4967009FB00F04FF47A7190FB68
:10194000F1F0401C2084A683208840F00100208014
:1019500026884FF6F5300640A88869890843064373
:101960002680A889298908432081BDE8FF870000D7
:1019700000127A0040420F00A08601000146088A4A
:10198000C0B2704712B141F0010101E001F0FE0167
:10199000018270470182704700B50246FFF786FE5C
:1019A00010605160D2E900031844906000BD00BF90
:1019B000FEE7704770B5002100230F22C4781CB3E6
:1019C000174C246804F4E064C4F5E064C4F3072110
:1019D000C1F10404E3B20A4144789C40E1B2847846
:1019E000144021430C07210E0E4C057861550478F4
:1019F00004F01F050124AC4005786D11AD0005F120
:101A0000E025C5F8004109E0047804F01F05012431
:101A1000AC40054D0678761145F8264070BD0000B3
:101A20000CED00E000E400E080E100E00249014349
:101A3000024A1160704700000000FA050CED00E05A
:101A400010B5002807DA0A07140E054A00F00F0344
:101A50001B1FD45403E00A07130E024A135410BD8F
:101A600018ED00E000E400E000BF00BF00BFBFF3DE
:101A70004F8F00BF00BF00BF0948006800F4E0605E
:101A800008490843001D0649086000BF00BF00BFA9
:101A9000BFF34F8F00BF00BF00BF00BF00BFFDE717
:101AA0000CED00E00000FA051CB50121102000F04B
:101AB0002DF82020009001208DF8040002208DF8E0
:101AC000050000208DF8060001208DF8070069460A
:101AD0000748FFF765FC1020009069460448FFF7AF
:101AE0005FFC0820009069460148FFF759FC1CBDC7
:101AF000001002407047000010B50348FFF776FA67
:101B00001020FFF735F910BDA086010029B1064A63
:101B100012680243044B1A6004E0034A12688243CD
:101B2000014B1A60704700003038024029B1064A64
:101B300012680243044B1A6004E0034A12688243AD
:101B4000014B1A60704700004038024029B1064A34
:101B500012680243044B1A6004E0034A126882438D
:101B6000014B1A60704700002038024029B1064A34
:101B700012680243044B1A6004E0034A126882436D
:101B8000014B1A60704700004438024029B1064AF0
:101B900012680243044B1A6004E0034A126882434D
:101BA000014B1A607047000024380240F0B5002154
:101BB00000220024022500260223324F3F6807F04E
:101BC0000C0121B1042905D0082937D105E02E4F99
:101BD000076036E02D4F076033E02A4F3F1F3F6814
:101BE000C7F38056274F3F1F3F6807F03F036EB192
:101BF000264FB7FBF3F7DFF88CC0ACF1040CDCF830
:101C000000C0CCF3881C07FB0CF40CE01E4FB7FBA4
:101C1000F3F7DFF870C0ACF1040CDCF800C0CCF3D3
:101C2000881C07FB0CF4174F3F1F3F68C7F30147A1
:101C30007F1C7D00B4FBF5F7076002E0124F0760E0
:101C400000BF00BF0F4F3F6807F0F0010909104FB8
:101C50007A5C0768D74047600A4F3F6807F4E05155
:101C6000890A0B4F7A5C4768D7408760054F3F6809
:101C700007F46041490B064F7A5C4768D740C7605C
:101C8000F0BD0000083802400024F40000127A0081
:101C90000000002010B500224FF400510148FFF76A
:101CA00005FC10BD000C02401CB501210820FFF707
:101CB0002DFF4FF40050009001208DF80400022009
:101CC0008DF8050000208DF8060001208DF8070032
:101CD00069460248FFF764FB1CBD0000000C02408F
:101CE000034613B109B1022A02D24FF0FF30704708
:101CF000D9600020186058609A6000BFF7E710B5FF
:101D000002460B461168491C9068884200D80021A1
:101D10005068884202D14FF0FF3010BD1468D0687F
:101D2000035511600020F8E700B585B001210420BB
:101D3000FFF7ECFE01218803FFF718FF00208DF864
:101D4000080001208DF80B002020019001A9124805
:101D5000FFF726FB0521022000F058FC202003900D
:101D600000208DF810000C208DF8110001208DF856
:101D7000120003A8FFF7CAFA17208DF800000F2001
:101D80008DF801008DF8020001208DF803006846EF
:101D9000FFF710FE05B000BD0008024010B52DEDA4
:101DA000068B04461148408800EE100AB8EE400A3F
:101DB00010EE101A0846FEF7DBFB41EC1A0B9FED04
:101DC0000C0B53EC102BFEF7E5FA41EC190B9FEDD1
:101DD0000A0B53EC102BFEF736FA41EC180BFEF70A
:101DE000DAFB2060BDEC068B10BD0000B2000020C5
:101DF0007250564A8C93823F333333333333D33F5D
:101E0000024600210CE0084850F82100012805D1C5
:101E10000648405C904201D108467047481CC1B258
:101E20000129F0DBFF20F8E75802002060020020C3
:101E300001460020704700002DE9F04107460C469E
:101E400015461E461448076014480480144805606F
:101E5000144806800223012201881148006803F01B
:101E600011FD022301220D4801880B48006803F090
:101E700009FD00220B48018809480068FFF716FB9E
:101E800001220648018804480068FFF70FFB642020
:101E900002F0DEFABDE8F08198020020A0020020E6
:101EA0009C020020A2020020C0EBC00000BF011E67
:101EB000A0F10100FBD1704710B502230022204899
:101EC00001882048006803F0DDFC082000F0C4F918
:101ED0000446240202230122194801881948006897
:101EE00003F0D0FC00221648018816480068FFF76E
:101EF000DDFA03F027F9012213480188134800682E
:101F0000FFF7D4FA03F01EF903F01CF903F01AF9F5
:101F100000220D4801880D480068FFF7C7FA03F05A
:101F200011F902230022064801880648006803F0E0
:101F3000A9FC082000F090F90443204610BD0000E1
:101F4000A002002098020020A20200209C02002093
:101F500070B52DED108B84B00446B9EE000AB0EEDA
:101F600040FA9FED3A0AF0EE40FA9FED390A8DED06
:101F7000020A9FED380A8DED010A9FED370A8DEDBB
:101F8000000A0526304600F0BDF800F013FAFFF70E
:101F900093FF08EE100A00F0DDF9F8EEC80A9FED95
:101FA0002B1AB9EE000A01EE200AF8EEC80A9FEDDE
:101FB000281A60EE810AB8EEC81A00EE810A10EE07
:101FC000105A03A800F050F82846FEF7D1FA41EC69
:101FD0001A0BF8EEC80A9FED1F0A9FED1F1A01EEBB
:101FE000200A10EE101A0846FEF7C2FA41EC1C0B4C
:101FF0000398FEF7BDFA41EC1E0B9FED180B53EC56
:10200000102BFEF7C1F941EC1D0B53EC1C2BFEF716
:10201000C1F941EC1B0B53EC1A2BFEF714F941EC00
:10202000190BFEF7B8FA08EE900A0E48007801285E
:1020300007D1BFEE000A84ED000A04B0BDEC108B9E
:1020400070BDC4ED008A0020F7E7000054E3253D91
:10205000A2E73BB60AD7233CACC5A7380000000076
:1020600000003940A402002010B52DED048B044679
:102070009FED130AB0EE409A9FED120AF0EE409ADF
:1020800000F024F8BDEEC00AB0EE408AF8EEC80AAF
:102090009FED0C1A9FED0A0A00EE810AF0EE408ACD
:1020A00009480078012806D1BFEE000A84ED000A35
:1020B000BDEC048B10BDC4ED008A0020F8E70000E1
:1020C000D7A31EC20AD7233CA402002070B5032563
:1020D000284600F017F800F06DF90848007801284C
:1020E00002D19FED070A70BDFFF7E6FE044600F03F
:1020F00031F900EE104AB8EEC00AF4E7A40200205D
:102100000000000010B50446022301224D4801885A
:102110004D48006803F0B6FB022301224B480188BA
:102120004B48006803F0AEFB0520FFF7BDFE01221F
:102130004648018846480068FFF7B8F90022414840
:10214000018841480068FFF7B1F902F0FBFF012266
:102150003C4801883C480068FFF7A8F902F0F2FF0C
:1021600000223A4801883A480068FFF79FF902F0D8
:10217000E9FF00223348018833480068FFF796F9E9
:1021800002F0E0FF02F0DEFF02F0DCFF01222D484A
:1021900001882D480068FFF789F902F0D3FF01227A
:1021A0002A4801882A480068FFF780F902F0CAFF30
:1021B00000222448018824480068FFF777F9204668
:1021C00000F082F80223002220480188204800689D
:1021D00003F058FB02F0B6FF01221A4801881A48A2
:1021E0000068FFF763F902F0ADFF02F0ABFF02F009
:1021F000A9FF1648018816480068FFF73CF918B98E
:1022000000201449087002E00120124908700022E1
:102210000C4801880C480068FFF748F902F092FF6B
:1022200002F090FF02F08EFF08480188084800681D
:10223000FFF721F90548018805480068FFF71BF9F9
:1022400010BD0000A20200209C020020A00200207D
:1022500098020020A402002070B505460024022345
:102260000022154801881548006803F00BFB002682
:102270001EE001221248018812480068FFF716F993
:1022800002F060FF0C4801880C480068FFF7F3F883
:1022900000EB440402F056FF02F054FF002208480D
:1022A000018808480068FFF701F902F04BFF761C2F
:1022B000AE42DEDB204670BDA00200209802002066
:1022C000A20200209C02002070B5044602230122D5
:1022D0001C4801881C48006803F0D4FA00252CE053
:1022E00004F0800038B101221648018816480068C1
:1022F000FFF7DCF806E00022124801881248006867
:10230000FFF7D4F802F01EFF0122104801881048A0
:102310000068FFF7CBF802F015FF02F013FF02F0A0
:1023200011FF00220948018809480068FFF7BEF83C
:1023300002F008FF6400681CC5B2082DD0DB002045
:1023400070BD0000A002002098020020A202002020
:102350009C02002010B50223012212480188124875
:10236000006803F08FFA01220E4801880E480068C9
:10237000FFF79CF802F0E6FE01220C4801880C48A9
:102380000068FFF793F802F0DDFE02F0DBFE0022AA
:102390000648018806480068FFF788F802F0D2FE78
:1023A00010BD0000A002002098020020A202002020
:1023B0009C02002010B50223002215480188154810
:1023C000006803F05FFA02F0BDFE64240DE01048DF
:1023D000018810480068FFF74EF818B900200E4930
:1023E000087007E00A2002F033F8201EA4F1010172
:1023F000CCB2ECD100BF0648018806480068FFF760
:102400003AF8012800D014B901200349087010BD22
:10241000A002002098020020A40200200146012012
:10242000014A1060002070473C02002010B50446AD
:102430002348006830B101280FD002280ED00328AD
:1024400035D10CE0302C06DB392C04DCA4F1300053
:102450001C49086030E0002010BD00BF00BF302CD8
:102460000FDB392C0DDC1748006800EB80004000C2
:1024700014490860A4F13000096808441149086053
:102480001AE0104801781048FFF739FC0D48008821
:10249000C0F307210C48FFF732FC0C480068401CD1
:1024A0000A49086001200A4908600020D4E7012099
:1024B000074908600020CFE700BFFF20CCE70000FD
:1024C000640200207C020020E41500203802002075
:1024D0003C02002001464248006878B90020414A89
:1024E0001070414A10704148414A10604148424AC8
:1024F00010604248424A1060FF2070472C2904D1E6
:1025000038480078401C374A107037480078002857
:102510003AD03B4800680078884211D138480068BA
:10252000401C374A1060104600680078A0B90020AF
:10253000314A126810700120324A10700020DCE726
:102540002E482F4A1060104600680078884203D158
:1025500010460068401C106027480068254A801A11
:10256000FF2808D30020244A126810700120254A51
:1025700010700020C1E72048006801701E48006804
:10258000401C1D4A106023E01648007810B1012855
:102590001CD100E01BE016480068144A801A12287B
:1025A00002D300201070A8E7302901DB392901DDB2
:1025B0002B290AD10E48006801700D480068401CA4
:1025C0000B4A106000201268107000E000BF00BFCE
:1025D0000A2902D10120044A1070FF208DE7000073
:1025E000640200208802002089020020AF1500202C
:1025F0008C020020B0140020940200207C620008AD
:1026000090020020750200207047000030B50022C3
:102610008B071C0F0F2303FA04F20B4B8C1053F89B
:1026200024309343084C8D1044F8253023468C10F9
:1026300053F824308C07240F00FA04F42343024C8F
:102640008D1044F8253030BD0838014010B5FFF733
:102650002BFAFEF7A5F901F00FF9FFF765FB10BDA6
:1026600010B5002204210848FEF720FF4FF47A70CD
:1026700001F0EEFE012204210348FEF717FF4FF49C
:10268000FA6001F0E5FE10BD0010024038B50024EC
:102690004748FFF783FB00F0CFFB4648FFF7E4FC19
:1026A00068B145A001F08AF948480078401C4749C4
:1026B00008709FED470A3F4880ED000A1DE03D4845
:1026C00090ED000ADFED430AB4EEE00AF1EE10FAF5
:1026D00006DC90ED000AB5EEC00AF1EE10FA0CD25D
:1026E00035A001F06BF939480078401C3749087073
:1026F0009FED370A2F4880ED000A3748FFF728FC86
:1027000068B136A001F05AF930480078401C2F49D2
:1027100008709FED2F0A304880ED000A1DE02E481A
:1027200090ED000ADFED2B0AB4EEE00AF1EE10FAAC
:1027300006DC90ED000AB5EEC00AF1EE10FA0CD2FC
:1027400026A001F03BF921480078401C1F49087081
:102750009FED1F0A204880ED000AFFF7CDF96420A5
:1027600001F076FE6846FEF733FB40B92149009838
:1027700008600846006868B9002008600AE01EA0EA
:1027800001F01CF911480078401C10490870002025
:10279000184908600D480078052807DB1AA001F0E9
:1027A0000DF9002009490870FFF75AFF38BD0000F5
:1027B00018010020E00000205348542054656D703B
:1027C000204572726F72202E2E2E0A001E010020EC
:1027D000000000000000C842E400002053485420DC
:1027E00048756D6964204572726F72202E2E2E0A14
:1027F00000000000F4000020424831373530204509
:1028000072726F720A00000052657365742053651E
:102810006E736F72202E2E2E200A0A000CB5002037
:10282000019000903448006840F4803032490860DC
:1028300000BF3148006800F4003000900198401C4F
:102840000190009818B90198B0F5A06FF1D12A480D
:10285000006800F4003010B10120009001E0002079
:1028600000900098012846D123484030006840F08D
:1028700080502149403108602048006840F44040C1
:102880001E4908601C48083000681B490831086070
:102890000846006840F4004008600846006840F4BC
:1028A000A05008601648091F0860081F006840F023
:1028B0008070091F086000BF0F48006800F00070BA
:1028C0000028F9D040F205700E4908600A48083027
:1028D000006820F0030008490831086008460068D5
:1028E00040F00200086000BF03480830006800F0B4
:1028F0000C000828F8D10CBD0038024000700040E0
:1029000008544007003C02400146FF20024A107074
:102910000020024A10607047600200205802002028
:102920000146FF20024A50700020024A5060704762
:1029300060020020580200200146FF20024A9070E9
:102940000020024A90607047600200205802002078
:102950000146FF20024AD0700020024AD060704732
:1029600060020020580200200146FF20024A107138
:102970000020024A106170476002002058020020C7
:102980000146FF20024A50710020024A5061704700
:1029900060020020580200200146FF20024A907188
:1029A0000020024A90617047600200205802002017
:1029B0000146FF20024AD0710020024AD0617047D0
:1029C000600200205802002010B524480068401C16
:1029D0002249086022480088401C2149088021487B
:1029E0000068002804DD1F480068401E1D4908607B
:1029F0001B480088282805DB0020194908807F2013
:102A000000F0B6FE02F088FCFDF760FF1348006896
:102A10000A21B0FBF1F201FB120008B900F0D0FE70
:102A20000E4800684FF47A71B0FBF1F201FB12001E
:102A300090B901210C4800F0A5F80C480088401C12
:102A40000A490880084600883C2801DBFFF70CF89B
:102A500000F04CFF01F02CFC10BD000088000020AD
:102A6000A4000020A8000020C800002012000020C0
:102A700010B5124800684FF47A71B0FBF1F4601E93
:102A8000B0F1807F01D301200FE0601E4FF0E02104
:102A900048610F214FF0FF30FEF7D2FF00204FF0CA
:102AA000E021886107200861002008B100BFFEE72F
:102AB0000021481EFEF7C4FF10BD00007400002076
:102AC00010B51548006840F47000134908601348B9
:102AD000006840F001001149086000200F490831EA
:102AE00008600E4800680E4908400C4908600D480F
:102AF000091D0860081F006820F48020091F086075
:102B0000002006490C310860FFF788FE4FF0006096
:102B100001498039086010BD88ED00E000380240AE
:102B2000FFFFF6FE1030002410B50121880700F0E9
:102B3000CFF830B10121880700F0A4F801480068FF
:102B4000804710BD5801002010B502210A4800F04E
:102B5000BFF880B10221084800F094F8064800F060
:102B6000B4F80649088008460088054A128881188A
:102B7000014800F011F910BD000400402A010020B6
:102B80002001002070B505460C4615B94FF0FF3006
:102B900070BD0CB90020FBE7284600F02EF806199E
:102BA0003146284600F002F80020F1E713B58CB05A
:102BB00004461CB94FF0FF300EB010BD01A90DA89E
:102BC00002F0E2F9019840B2E071029840B2A071BF
:102BD000039840B26071049840B2E0700798401CBE
:102BE00040B220710598401C40B2A070069800F2D7
:102BF0006C7000B220800020DEE710B58CB0044677
:102C00001CB94FF0FF300CB010BD94F907000190D3
:102C100094F90600029094F90500039094F90300DA
:102C2000049094F90400079094F90200012808DB4D
:102C300094F902000C2804DC94F90200401E05906F
:102C400001E00020DFE7B4F9000040F2DC718842C7
:102C50000BDBB4F9000040F63301884205DCB4F91F
:102C60000000A0F26C70069001E00020CBE700208D
:102C7000099001A802F09EFBC5E701464FF47A7067
:102C800048437047CA430282704721B1028842F02C
:102C90000102028004E002884FF6FE731A400280AF
:102CA000704708B501210220FEF740FF1D208DF876
:102CB0000000FF208DF801008DF8020001208DF842
:102CC00003006846FEF776FE08BD0146486B704774
:102CD00030B50246002000230024158A05EA0103CE
:102CE000958905EA010413B10CB1012000E0002030
:102CF00030BD1AB183890B43838102E083898B4302
:102D00008381704770B5002400220023058C4FF6A4
:102D1000FE7635400584028C8388048B4FF68F75D0
:102D20002C40B51E2C400D882C43751E2A408D89E1
:102D30002A434D882A43104DA84202D00F4DA84285
:102D400013D14FF6F7752A40CD892A434FF6FB750C
:102D50002A408D882A434FF6FF652B404FF6FF55DA
:102D60002B400D8A2B434D8A2B43838004838D682F
:102D70004563028470BD0000000001400004014072
:102D80000A460021018B4FF6F77319401143018366
:102D90007047018582827047416370474162704786
:102DA00000220288184B98420ED0184B98420BD044
:102DB000B0F1804F08D0164B984205D0154B984281
:102DC00002D0154B984204D14FF68F731A404B88AE
:102DD0001A43124B984207D0114B984204D04FF639
:102DE000FF431A400B891A4302804B68C3620B8869
:102DF0000385054B984202D0044B984201D18B7A4F
:102E000003860123838270470000014000040140D3
:102E10000004004000080040000C0040001000408A
:102E2000001400404FF0FF3141600021018001811A
:102E3000418081727047000010B50548FEF7C4FC60
:102E40004FF48073034A51151046FEF7F5FF10BD8D
:102E5000005400400004024010B58AB0FFF721FF83
:102E60002E480068400842F21071B0FBF1F0401E9D
:102E70002B4908804FF6FF7008900020ADF81C0029
:102E8000ADF82400ADF81E0007A92648FFF788FF1B
:102E90000122234801882348FFF77BFF0020ADF87B
:102EA00008000120ADF80A001F48008804900020A7
:102EB000ADF8140002A91B48FFF724FF00211948B0
:102EC000FFF75EFF012202211648FFF712FF1D20C7
:102ED0000321002807DA0A07140E144A00F00F0332
:102EE0001B1FD45403E00A07130E114A135400BFEA
:102EF0001D208DF804000F208DF8050000208DF8AE
:102F0000060001208DF8070001A8FEF753FD0121FE
:102F10000448FFF7BAFE0AB010BD0000740000209C
:102F200028010020000400402001002018ED00E0EE
:102F300000E400E030B587B0044601211020FEF720
:102F400015FE01210220FEF7E1FDC02005900220C0
:102F50008DF818008DF8190000208DF81A00012056
:102F60008DF81B0005A92448FEF71AFA072206214E
:102F70002148FEF75DFA072211461F48FEF758FA6E
:102F800001940020ADF80800ADF80A00ADF80C007F
:102F9000ADF810000C20ADF80E0001A9174800F0A4
:102FA00069FB25200121002807DA0A07150E144ABB
:102FB00000F00F031B1FD55403E00A07130E114A3C
:102FC000135400BF25208DF8000000208DF801006B
:102FD0008DF8020001208DF803006846FEF7EAFC38
:102FE000012240F22551054800F01FFB0121034852
:102FF00000F05FFA07B030BD00040240001001404D
:1030000018ED00E000E400E010B588B004460121AE
:103010004804FEF78BFD01210820FEF777FD6020B4
:10302000069002208DF81C008DF81D0000208DF800
:103030001E0001208DF81F0006A91C48FEF7B0F9FC
:10304000072205211948FEF7F3F907220621174840
:10305000FEF7EEF902940020ADF80C00ADF80E007A
:10306000ADF81000ADF814000C20ADF8120002A964
:103070000F4800F0FFFA012240F225510C4800F001
:10308000D4FA26208DF8040000208DF805008DF874
:10309000060001208DF8070001A8FEF78BFC012136
:1030A000034800F006FA08B010BD0000000C024012
:1030B0000044004010B588B0044601218804FEF7A2
:1030C00035FD01210220FEF721FD4FF440600690FE
:1030D00002208DF81C008DF81D0000208DF81E00C8
:1030E00001208DF81F0006A92048FEF759F9072294
:1030F0000A211E48FEF79CF907220B211B48FEF708
:1031000097F902940020ADF80C00ADF80E00ADF870
:103110001000ADF814000C20ADF8120002A91448FC
:1031200000F0A8FA012240F22551114800F07DFA82
:1031300027208DF8040000208DF805008DF806008A
:1031400001208DF8070001A8FEF734FC0121084892
:1031500000F0AFF9064807490860002081F8020234
:1031600081F8040281F8050208B010BD0004024095
:10317000004800404408002010B588B004460121F2
:10318000C804FEF7D3FC01210846FEF7BFFC03206C
:10319000069002208DF81C008DF81D0000208DF88F
:1031A0001E0001208DF81F0006A91C48FEF7F8F844
:1031B000082200211948FEF73BF90822012117488F
:1031C000FEF736F902940020ADF80C00ADF80E00C1
:1031D000ADF81000ADF814000C20ADF8120002A9F3
:1031E0000F4800F047FA012240F225510C4800F048
:1031F0001CFA34208DF8040000208DF805008DF8AD
:10320000060001208DF8070001A8FEF7D3FB01217D
:10321000034800F04EF908B010BD00000000024065
:10322000004C004010B540F225510B4800F0D3F996
:1032300080B1094800F088FAC4B2084801780078E3
:10324000401C064A1070064844540A210548FEF7FF
:10325000A3FB00BF10BD0000005000401202002080
:10326000000F0020F40E002010B588B004460121A4
:103270000805FEF75BFC01210C20FEF747FC4FF42C
:103280008050069002208DF81C008DF81D00002053
:103290008DF81E0001208DF81F0006A91E48FEF7BC
:1032A0007FF80420069006A91C48FEF779F808224A
:1032B00002211A48FEF7BCF808220C211648FEF736
:1032C000B7F802940020ADF80C00ADF80E00ADF890
:1032D0001000ADF814000C20ADF8120002A910483F
:1032E00000F0C8F9012240F225510D4800F09DF987
:1032F00035208DF8040000208DF805008DF80600BB
:1033000001208DF8070001A8FEF754FB01210448B5
:1033100000F0CFF808B010BD00080240000C0240D9
:103320000050004070B504460D461148844203D158
:103330002846FFF7FFFD1AE00E48844203D12846D5
:10334000FFF762FE13E00C48844203D12846FFF7E2
:10335000B1FE0CE00948844203D12846FFF70CFF78
:1033600005E00748844202D12846FFF77DFF70BD83
:10337000001001400044004000480040004C004064
:103380000050004010B540F22551084800F023F9E4
:1033900050B1064800F0D8F9C4B221460448FEF7FF
:1033A000AEFC2046FDF75CFC10BD000000100140A3
:1033B000B013002010B540F22551064800F00BF97B
:1033C00038B1044800F0C0F9C4B221460248FEF703
:1033D00096FC10BD00440040A010002010B540F243
:1033E00025510B4800F0F7F880B1094800F0ACF91E
:1033F000C4B2084801780078401C064A107006489C
:1034000044540A210548FEF7C7FA00BF10BD00006A
:103410000048004015020020600F0020540F0020DB
:1034200010B540F225510D4800F0D5F838B140F202
:1034300025510A4800F018F809480068804740F212
:103440002771064800F0C7F838B140F227710348E9
:1034500000F00AF803480068804710BD00140140DE
:10346000500100205401002010B50022002340F636
:103470006A14A14200D100BF0A1201249440A3B2F1
:10348000DC43048010BD10B502460020108A20F4F1
:1034900070600B884C8823438C882343CC8823435B
:1034A0001843108210BD0021018041808180C180BD
:1034B000704721B1828942F40052828104E08289FE
:1034C0004DF6FF731A4082817047000010B5044624
:1034D0003248844208D101211020FEF757FB002119
:1034E0001020FEF753FB57E02D48844209D10121FB
:1034F0004804FEF72BFB00214FF40030FEF726FBBB
:103500004AE02848844209D101218804FEF71EFBC5
:1035100000214FF48020FEF719FB3DE02248844251
:1035200009D10121C804FEF711FB00214FF400204E
:10353000FEF70CFB30E01D48844209D1012108054B
:10354000FEF704FB00214FF48010FEF7FFFA23E0A2
:103550001748844208D101212020FEF717FB0021E3
:103560002020FEF713FB17E01248844209D1012105
:103570008807FEF7EBFA00214FF08040FEF7E6FAED
:103580000AE00D48844207D101214005FEF7DEFA2A
:1035900000216005FEF7DAFA10BD000000100140BE
:1035A0000044004000480040004C004000500040F3
:1035B0000014014000780040007C004002460020DA
:1035C000B1F5007F00D100BF13880B400BB1012083
:1035D00000E00020704770B502460024002300255B
:1035E000002040F66A16B14200D100BFC1F3421577
:1035F00001F01F03012606FA03F3012D02D196897B
:10360000334006E0022D02D1168A334001E0968A4B
:1036100033400C12012606FA04F41688344013B124
:103620000CB1012000E0002070BDF0B5034600247D
:1036300000260025002040F66A17B94200D100BFDD
:103640001846C1F3421401F01F06012707FA06F5D8
:10365000012C01D10C3004E0022C01D1103000E02B
:1036600014301AB107682F43076002E00768AF43C0
:103670000760F0BD2DE9FF4705460E460024A14630
:1036800000BFA046B08900B100BF2C8A24F440548A
:10369000F08804432C82AC8941F20C608443B088EA
:1036A00031890843718908430443AC81AC8A24F40E
:1036B0004074B0890443AC826846FEF777FA20482C
:1036C000854202D01F48854202D1DDF80C9001E00E
:1036D000DDF80890A88900F4004040B109EBC9006A
:1036E00000EB091031684900B0FBF1F707E009EB86
:1036F000C90000EB091031688900B0FBF1F76420C4
:10370000B7FBF0F004012009642101FB1078A889BF
:1037100000F4004040B1322000EBC800B0FBF1F0F3
:1037200000F00700044308E0322000EB0810642199
:10373000B0FBF1F000F00F0004432C81BDE8FF87DF
:10374000001001400014014001468888C0F30800C1
:103750007047C1F308028280704700BFFEE7000097
:1037600040F08001014A116070470000002C0040C9
:1037700000F07F01014A116070470000002C0040FA
:103780000021044A126822F4C0710143014A116009
:1037900070470000042C004008B500210091074943
:1037A000096821F07F01009100F07F01009A114328
:1037B0000091024A0099116008BD0000042C0040ED
:1037C00000B50022002328498888FDF749F8024601
:1037D000162A01DA00231EE0432A01DA01231AE047
:1037E000702A01DA022316E09D2A01DA032312E08F
:1037F000D42A01DA04230EE0F72A01DA05230AE0CD
:10380000B2F5927F01DA062305E0B2F5A87F01DC6C
:10381000072300E0002315484068144988600846E3
:10382000006848601248006858B90846006810B936
:10383000042B00D100230D48006810B9052B00D1DE
:1038400000230A480360806808494968884209D112
:103850000648406805490968884203D10348006862
:103860000449086000BD0000AC000020700C00207E
:10387000A80000200001002000B585B0012104202F
:10388000FEF744F901218803FEF770F900208DF856
:10389000080001208DF80B001020019001A91248AA
:1038A000FDF77EFD04210220FEF7B0FE10200390FC
:1038B00000208DF810000C208DF8110001208DF8EB
:1038C000120003A8FDF722FD0A208DF800000F204A
:1038D0008DF801008DF8020001208DF80300684684
:1038E000FEF768F805B000BD0008024010B52DEDE8
:1038F0000C8B27480078401C254908700846007842
:1039000024490978884240DB9FED230AB0EE408AC3
:1039100020480078FCF71FFE41EC1A0B1F4890ED81
:10392000000AB8EEC00A10EE100AFCF721FE41ECC6
:103930001D0B9FED1B0B53EC102BFCF72BFD41ECEB
:103940001C0B9FED190B53EC102BFCF723FD41ECE6
:103950001B0B53EC1A2BFCF78FFD41EC190BFCF7FA
:103960001AFE08EE100A0D48006811490860114857
:1039700080ED008ABCEEC80A0F4880ED000A0020E6
:10398000064908600249087000BFBDEC0C8B10BDF1
:103990001C0100201D01002000000000D4000020B8
:1039A00000000000000002407250C24CDBBFF93F33
:1039B000D8000020100100200C0100200FB4054B9E
:1039C00010B503A9044A029800F0DAF810BC5DF8BB
:1039D00014FB0000654F0008A802002002E008C8A0
:1039E000121F08C1002AFAD170477047002001E079
:1039F00001C1121F002AFBD1704700002DE9FF5FB3
:103A000082B00021DDE90430020DDDF840B003434F
:103A100018D044F61050A2F2FF3242431514119808
:103A200001281FD0A5EB0B00401C5FEA000A4FF0F5
:103A300000064E4FDFF83891B046504615D5CAF112
:103A4000000413E0119801244AA3012801D16FEA70
:103A50000B010298119AC0E90031C0E9024206B098
:103A6000BDE8F09FCBF10000DFE704460021404AAB
:103A7000491842EB0450CDE9001012E0E00707D0EE
:103A800032463B4640464946FCF784FC8046894620
:103A900032463B4610461946FCF77CFC06460F466C
:103AA0006410002CEAD1DDE90401DDE90023BAF15C
:103AB000000F06DAFCF76EFC42464B46FCF76AFC48
:103AC00005E0FCF7D9FC42464B46FCF7D5FC044622
:103AD0000E460022284BFCF76DFE03D84FF0FF3056
:103AE000014607E00022254B20463146FCF7ABFBA0
:103AF000FCF748FE102409E0002C0ADB0A22002310
:103B0000FCF75EFB039B30321A55641E50EA01023B
:103B1000F2D1641C039AC4F111031444119A012ACE
:103B200003D0012208430DD10AE0084304D000204D
:103B30004FF0110B119072E7A3EB0B056D1E0DE01A
:103B40005B4504DD4FF0000205F1010504E003DAF6
:103B50004FF00002A5F10105002AECD0029811995E
:103B6000C0E90231C0E9004579E7000000001440D7
:103B70000000F03F300000000000F0430000E03F94
:103B80002DE9FF4F95B09B468946064600250FE27A
:103B9000252877D100242746F84A0121059400E022
:103BA000044316F8013F203B01FA03F01042F7D11D
:103BB00030782A2811D06FF02F033078A0F130022E
:103BC000092A16D8059A44F0020402EB820203EB9C
:103BD00042021044761C0590EFE759F8042B059239
:103BE000002A03DA504244F40054059044F00204E1
:103BF000761C30782E2816D116F8010F44F00404F4
:103C00002A280DD06FF02F023078A0F13003092B55
:103C100009D807EB870302EB4303C718761CF3E7C9
:103C200059F8047B761C30786C280FD006DC4C28C1
:103C300017D068280DD06A2814D104E0742810D059
:103C40007A280FD10DE044F400140AE044F4801403
:103C500001E044F440147278824202D104F58014E9
:103C6000761C761C307866280BD013DC582877D069
:103C700009DC002875D04528F6D04628F4D047281E
:103C80001AD19DE118E0632835D0642879D06528E1
:103C900012D195E1702873D008DC6728F1D069282B
:103CA0006FD06E280DD06F2806D1B5E073282CD0C8
:103CB000752875D0782874D05A46179990476D1C8E
:103CC00075E1C4F30250022809D003280DD0D9F8B9
:103CD000001004280DD00D6009F1040967E1D9F83E
:103CE0000010EA17C1E90052F6E7D9F800100D807C
:103CF000F2E70D70F0E719F8041B8DF800100020B2
:103D00008DF80100EA46012003E059F804AB4FF0BA
:103D1000FF3061074FF0000102D40DE008F101010E
:103D20008846B9420FDA8045F8DB1AF808100029F6
:103D3000F4D108E008F1010188468142FADB1AF863
:103D400008100029F6D105985B46A0EB080721462C
:103D50003846179A00F094FA284400EB080507E06B
:103D60004DE029E10DE01AF8010B5A4617999047EA
:103D7000B8F10108F7D25B4621463846179A13E19D
:103D800042E00A220092C4F302524FF0000A022AD3
:103D900008D059F804CB032A4FEAEC710AD00DE0A1
:103DA00029E02AE009F1070121F00702F2E802C147
:103DB000914609E00FFA8CFC4FEAEC71042A03D11A
:103DC0004FFA8CFC4FEAEC71002907DA0A46002111
:103DD000DCF1000C61EB02012D2202E0220504D58A
:103DE0002B228DF80420012203E0E20701D02022DB
:103DF000F7E7904659E00A2102E010220DE0102179
:103E00004FF0000A00910BE010224FF0000A44F03E
:103E100004040827009203E008224FF0000A0092F1
:103E2000C4F30252022A05D059F804CB0021032A18
:103E300008D009E009F1070121F00702F2E802C108
:103E4000914605E01FFA8CFC042A01D10CF0FF0C0E
:103E50004FF00008220728D5702806D0009B83F079
:103E6000100353EA0A0305D00EE040228DF8042027
:103E7000012208E05CEA010206D030228DF804201D
:103E80008DF8050002229046009B83F0080353EA58
:103E90000A030AD15CEA010201D1620705D530228A
:103EA0008DF804204FF001087F1E582804D034A05C
:103EB00003900EA802900DE036A0F9E75346604645
:103EC000009AFCF77DF984460398825C0298401EB4
:103ED000029002705CEA0100F0D1029806A9081A6B
:103EE00000F1200A600702D524F4803400E00127A5
:103EF000574502DDA7EB0A0000E0002000EB0A01B5
:103F0000009005984144401A0590E00306D45B46B2
:103F10002146179A059800F0B3F90544002706E0FA
:103F200001A85A46C05D179990476D1C7F1C4745F4
:103F3000F6DBE0030CD55B462146179A059800F0A6
:103F40009FF9054404E030205A46179990476D1CAC
:103F50000099481E00900029F5DC08E002980299BB
:103F60005A460078491C0291179990476D1CBAF186
:103F70000001AAF1010AF1DC65E100000928010055
:103F800030313233343536373839616263646566CF
:103F90000000000030313233343536373839414291
:103FA000434445460000000000F058F90544761CE3
:103FB000307800287FF4ECAD19B02846BDE8F08FCA
:103FC000620700D4062709F1070222F0070CFCE87B
:103FD0000223E14603F000485FEA080C02D00FF22A
:103FE000702C0DE05FEA045C02D50FF2682C07E04C
:103FF0005FEAC47C02D00FF2602C01E0AFF2700CDB
:104000004FF0FF3823F00043CDF850C065280CD0A6
:1040100006DC452809D046281DD047283DD13DE083
:10402000662818D067287ED138E00021112F01DBE7
:10403000112000E0781CCDE9000106A90EA8FFF7C9
:10404000DDFCDDE90F010E9A03910021009207F1DA
:10405000010A04914DE04FF000400097CDE90110B6
:1040600006A90EA8FFF7CAFCDDE90F0203920E9B1A
:1040700011990022DDF80CA00093049211B9791C6B
:1040800000EB010AB7EB0A0004D4C0F1FF3007F1DE
:10409000010A0490AAEB0700019044E0012F00DA26
:1040A00001270021112F01DD112000E03846CDE964
:1040B000000106A90EA8FFF7A1FCDDE90F010E9A89
:1040C0000391002104910092BA4621070CD4039970
:1040D000514500DA8A46BAF1010F05DD009AAAF1CE
:1040E0000101515C302908D0B84202DA10F1040F06
:1040F00006DA0121CDE9011015E0AAF10101E9E795
:10410000002805DC049901440491AAEB000102E0B7
:10411000411C514500DD8A460499401A401C01901B
:104120004FF000400290200704D40198504501DB75
:10413000CDF8048000208DF84F0002980DF14F0754
:10414000B0F1004F25D02B200E9002984FF00208BE
:1041500000280CDA404202902D200E9007E00A2140
:104160000298FCF734FA3031029007F8011DB8F1DB
:104170000001A8F10108F2DC02980028EFD1791EB5
:104180000E980870307800F0200040F0450007F8E5
:10419000020D12A8C01B00F107081498007800B1A6
:1041A000012000EB0A01019801EBE0710598414400
:1041B000401A401E0590E00306D45B462146179A3C
:1041C000059800F05DF805441498007818B15A4637
:1041D000179990476D1CE00324D55B462146179A3A
:1041E000059800F04DF805441CE00498002807DB12
:1041F000DDE90301884203DD0098405C179901E086
:10420000179930205A469047049805F10105401C43
:1042100004900198401E019004D12E205A4617990F
:1042200090476D1CBAF10001AAF1010ADDDC05E03E
:1042300017F8010B5A46179990476D1CB8F1000109
:10424000A8F10108F4DC5B462146179A0598ABE615
:104250002D0000002B000000200000002DE9F0419F
:10426000044600251E461746880404D405E0394656
:104270002020B0476D1C641EF9D52846BDE8F081AA
:104280002DE9F041044600251E469046C80301D59D
:10429000302700E02027880404D505E04146384651
:1042A000B0476D1C641EF9D52846BDE8F0810000BA
:1042B00010B55248B0F9000040F2B271884200D106
:1042C00010BD4F480088401C4D49088008460088B2
:1042D0000A2190FBF1F201FB120010B901204949BB
:1042E00008704848007818B94748007800287DD001
:1042F0000020444908704449087044483F490A680E
:10430000026049684160424890ED000A3F4880EDF4
:10431000020A404890ED000A3C4880ED030A3E48FE
:1043200090ED000A394880ED040A3C4890ED000AFF
:10433000364880ED050A3A480068344988613948B2
:104340000068C8613848007881F820003748007854
:1043500081F821002A4800883C2190FBF1F201FB02
:10436000120040B9324800682849C1F822000120F3
:104370003049087003E000202449C1F822002E488B
:1043800000682249C1F82A002C480068C1F82600BC
:104390002B480068C1F8310020212A48FDF774F845
:1043A0001A4981F82E0010212648FDF76DF81749AB
:1043B00081F82F0008212348FDF766F8134981F89A
:1043C0003000002081F835001F48407860B100209F
:1043D0001D49487038220D491B483B30FBF721FF2F
:1043E00001200A4981F83500382200E003E007493E
:1043F0001648FBF716FF00BF62E70000C800002068
:10440000300100202C0100202D010020280D00206B
:10441000E0000020E4000020E8000020EC00002084
:10442000F4000020F0000020F8000020FC00002034
:10443000140100202E0100200C01002000010020AA
:1044400018010020001002407C0C0020600D0020AC
:104450003EB5044621466846FDF79EFA00BF684611
:10446000FCF712FE0028FAD13EBD00002DE9F04114
:1044700080460C4615461E46002772B60A200A4999
:104480000870334607222946204601F03DFC08B952
:10449000032705E044F6206001F0EEFC00B9032795
:1044A00062B63846BDE8F0810F0200202DE9F041E8
:1044B00004460D461646002772B60E4800880328AB
:1044C00013DB0C4801880C48006801F066FA60B9FB
:1044D000094800680078207006480088801E3080F7
:1044E00005480068401C286000E0052762B6384691
:1044F000BDE8F08104020020000200202DE9F04117
:1045000004460D4616464FF0000872B6164800786D
:1045100018BB681E1549086001201549088013481A
:104520000068047008460088304408800846018806
:104530000E48006801F031FA07460D490888411C11
:104540000B4A11800B4909680F5401200A49087071
:104550000121002001F04EFA01E04FF0050862B69B
:104560004046BDE8F0810000FD0100200802002067
:104570000C02002000020020FC01002010B572B6E1
:104580000021012001F036FA00200349087062B6CC
:10459000002001F0A1FB10BDFD01002010B572B696
:1045A0000021084601F026FA01F046FA62B610BD75
:1045B00010B5002406480078012806D10548006897
:1045C000804700200249087000E00624204610BD04
:1045D0003A010020400100202DE9F05F06460D461B
:1045E0004FF0000B2888052848D170784FEA002941
:1045F000B07840EA090909F101001FFA80F9F07862
:10460000040230790443012C35DBB4F5FA6F32DA59
:10461000374600202880012007F8010B2888401C1D
:10462000288004F0070040B12046E11704EB5171E7
:10463000C910491C01F0FF0805E02046E11704EB12
:104640005171C1F3C70807F8018B2888401C2880E6
:10465000002322464946384600F03EFC8246BAF125
:10466000000F04D0504601F063F9834608E0288823
:104670004044288004E04FF0030B01E04FF0030BAF
:104680005846BDE8F09F2DE9F05F06460D464FF015
:10469000000B2888052847D170784FEA0029B078A8
:1046A00040EA090909F101001FFA80F9F0780402D3
:1046B00030790443012C34DBB4F5FA6F31DA374634
:1046C00000202880022007F8010B2888401C288041
:1046D00004F0070040B12046E11704EB5171C91006
:1046E000491C01F0FF0805E02046E11704EB517179
:1046F000C1F3C70807F8018B2888401C2880224690
:104700004946384600F0EBFB8246BAF1000F04D070
:10471000504601F00DF9834608E02888404428807F
:1047200004E04FF0030B01E04FF0030B5846BDE8E7
:10473000F09F2DE9F04705460C464FF0000A20880F
:10474000052837D168784FEA0028A87840EA080899
:1047500008F101001FFA80F8E87806022E79012E90
:1047600025DB7D2E23DC2F4600202080032007F848
:10477000010B2088401C20807006000E07F8010BFA
:104780002088401C2080002332464146384600F0F5
:10479000A9FB8146B9F1000F04D0484601F0C8F8E2
:1047A000824609E0208800EB4600208004E04FF0BC
:1047B000030A01E04FF0030A5046BDE8F0872DE9F7
:1047C000F04705460C464FF0000A2088052837D1EF
:1047D00068784FEA0028A87840EA080808F1010044
:1047E0001FFA80F8E878060228790643012E24DBB8
:1047F0007D2E22DA2F4600202080042007F8010BAE
:104800002088401C20807006000E07F8010B2088CD
:10481000401C208032464146384600F0A1FB8146CC
:10482000B9F1000F04D0484601F082F8824609E051
:10483000208800EB4600208004E04FF0030A01E0EE
:104840004FF0030A5046BDE8F0872DE9FC5F0446AF
:104850000D460020009028880A285DDB60784FEA2A
:10486000002AA07840EA0A0A0AF101001FFA80FA39
:10487000E07806022079064360794FEA002BA079A0
:1048800040EA0B0B0BF101001FFA80FBE0790702F5
:10489000207A0743607A0190012E3BDB7D2E39DCC4
:1048A000012F37DB792F35DC79000198814231D136
:1048B00001233A46594604F10A0000F013FB8146F1
:1048C000B9F1000F1ED1A04600202880172008F85B
:1048D000010B2888401C28807006000E08F8010B88
:1048E0002888401C2880002332465146404600F06C
:1048F000F9FA8146B9F1000F04D12888022101FBA1
:1049000006002880B9F1000F06D0484601F010F8E3
:10491000009001E0032000900098BDE8FC9F00009B
:1049200070B505460C46064802880649681CFBF728
:1049300078FC03480088401C2080002070BD0000E7
:1049400010020020C00E00202DE9F84304460F4657
:104950004FF000083888052829D160780502A07832
:104960000543681C85B22079F0B9E078FF2801D0B2
:10497000E078C8B900208DF80100E078FF2803D165
:1049800001208DF8000002E000208DF800000123D6
:104990001A462946684600F09FFA06464EB1304650
:1049A00000F0C6FF804604E04FF0030801E04FF03E
:1049B00003084046BDE8F8832DE9F04104460F4660
:1049C0004FF000083888052812D160780502A078D9
:1049D0000543681C85B201231A462946E01C00F0F5
:1049E00081FA064636B1304600F0A2FF804601E06B
:1049F0004FF003084046BDE8F0812DE9F05F054621
:104A00000E464FF0000B3088052839DD6878070224
:104A1000A8780743781C87B2E87804022879044311
:104A200095F805A004F0070040B12046E11704EB1B
:104A30005171C910491C01F0FF0805E02046E1173B
:104A400004EB5171C1F3C708012C16DBB4F5F66F06
:104A500013DCD04511D1012322463946A81D00F0B0
:104A60003BFA8146B9F1000F04D0484600F060FFE0
:104A7000834607E00520308004E04FF0030B01E09F
:104A80004FF0030B5846BDE8F09F2DE9F047044670
:104A90000E464FF0000A3088062828DB60780702AF
:104AA000A0780743781C87B2E07805022079054397
:104AB00094F80590012D17DB782D15DC6806000EA3
:104AC000484511D101232A463946A01D00F00AFAB3
:104AD0008046B8F1000F04D0404600F029FF82461E
:104AE00007E00520308004E04FF0030A01E04FF0BA
:104AF000030A5046BDE8F0872DE9F04705460C460D
:104B000016461F46DDF820904FF000081CB1012C1E
:104B100001DBF72C02DD4FF0020859E02E4804704B
:104B200015B1012D42D120E02C482D4908602D48B7
:104B30002D4908602D482E4908602E482E490860EE
:104B400000202E4908602E482E4908602E482F4923
:104B500008602F482F4908604B463A4631461E48A8
:104B6000007800F007F9804623E02B481C490860D4
:104B70002A481D4908602A481D49086029481E49DD
:104B8000086000201D49086027481E490860274822
:104B90001E49086026481F4908604B463A46314680
:104BA0000D480078FFF762FC804602E04FF00208F3
:104BB00000BF00BFB8F1000F0AD101F085F810B9AD
:104BC0004FF0030804E01B48057001201A490870E3
:104BD0004046BDE8F087000038010020A54E0008DF
:104BE00040010020C54E000844010020194E000875
:104BF0003C010020C54D0008480100204C01002068
:104C0000E95E000850010020B15F00085401002057
:104C1000715F0008580100207D4500089D4500088F
:104C2000FD440008AD4400085D5A0008B15B00086F
:104C3000855B0008390100203A01002038B50025C5
:104C40004148007808B1062038BD684601F02AF8CE
:104C5000002877D09DF8000030B1012805D0022847
:104C600018D003286DD16BE06BE0384A38493948D9
:104C7000394B1B68984705465DB936480078374977
:104C80000978884202D03348007810B9022001F038
:104C900023F856E02E48006800783149087001205A
:104CA00030490870002417E02F4810F8340000B98C
:104CB00014E02D4810F834002949097888420AD1B7
:104CC000294800EBC4002149426821480068904708
:104CD0002449087002E0641C102CE5DB00BF1D486D
:104CE000007858B31F480078C8B1002017490880E1
:104CF0001B48007840F08001144802880088401C5E
:104D0000124B1880124800688154164802781846E1
:104D100001880088401C18800D48006842541348E0
:104D20000078012800D100BF0848028808480168BF
:104D30000A4800780E4B1B689847054601E001E0E1
:104D400000BF00BF00207FE73A010020EA010020F9
:104D5000E4010020E8010020480100203801002083
:104D6000E9010020EC01002064010020390100204D
:104D70003C0100202DE9F04781460E4614461F46AF
:104D80004FF0000872B63B4608222146304600F03C
:104D9000BBFF10B94FF003080EE0B4F5964F01D9F0
:104DA000232503E060000649B1FBF0F5A8B201F04D
:104DB00063F808B94FF0030862B64046BDE8F087D3
:104DC000A07F17002DE9F04104460D4616464FF02E
:104DD0000008002772B60E480088042812DB0C4831
:104DE00001880C4800F0EAFD60B90A48007820709C
:104DF00007480088C01E30800648401C28604FF0DD
:104E0000010800E0052762B63846BDE8F0810000E1
:104E1000FA010020C00D00202DE9F04105460E46A4
:104E200017464FF0000872B619480078012829D1BA
:104E3000701E18490860012017490880154800684D
:104E400005700846008838440880084601881148E3
:104E5000006800F0B3FD04460F490888411C0E4B62
:104E600019800E490C54221219460888411C1980D9
:104E70000A490A5401200A4908700121002000F063
:104E8000B9FD01E04FF0050862B64046BDE8F0818B
:104E9000F1010020F4010020F8010020C00D0020E5
:104EA000F001002010B572B60020054908700021FD
:104EB000012000F09FFD00F0C6FD62B610BD0000AD
:104EC000F101002010B572B60021084600F092FDF5
:104ED00000F0B2FD62B610BD10B5044610BD034629
:104EE00001207047F0B504460D460020012D31DB4E
:104EF000AE18152E2EDC184E3688A91B13B1012BC7
:104F000027D111E00DE0154E36F81160361204F885
:104F1000016B124E16F8116004F8016B491C561E05
:104F2000B2B2002AEFDC14E010E014F8017B3E027C
:104F30000A4F27F8116014F8016B37F811703E43DF
:104F4000064F27F81160491C561EB2B2002AECDC4D
:104F500000BF00E00120F0BD34010020980D0020CA
:104F60000346704770B504460D46E1B20548FEF7AA
:104F7000F0FB00BF40210348FEF720FB0028F9D0DA
:104F8000204670BD00480040F0B505460A462E6830
:104F900040F2B2715848B6FBF0F700FB1764B6FB5D
:104FA000F0F33C20B4FBF0F700FB174010604FF427
:104FB0006160B4FBF0F700FB17403C27B0FBF7F053
:104FC00050604FF46160B4FBF0F09060181D07274B
:104FD000B0FBF7FC07FB1C0090611BE00846CF17F5
:104FE00001EB9777BF10A1EB87077FB9642791FB8F
:104FF000F7FC07FB1C1737B94FF4C87791FBF7FC98
:1050000007FB1C1717B94FF4B77701E040F26D1793
:10501000DB1B491CCF1701EB9777BF10A1EB87076C
:105020007FB9642791FBF7FC07FB1C1737B94FF4D6
:10503000C87791FBF7FC07FB1C1717B94FF4B7773C
:1050400001E040F26D179F42C8D9A1F26C70506127
:10505000D3610020106125E00846CF1701EB977758
:10506000BF10A1EB870777B9642791FBF7FC07FB1B
:105070001C1737B94FF4C87791FBF7FC07FB1C17D7
:105080000FB9012700E0002707EB4707DFF86CC0E6
:105090000CEB0717D2F810C057F82C70DB1B106907
:1050A000401C1061CF1701EB9777BF10A1EB87076A
:1050B00077B9642791FBF7FC07FB1C1737B94FF44E
:1050C000C87791FBF7FC07FB1C170FB9012700E01D
:1050D000002707EB4707DFF824C00CEB0717D2F8CF
:1050E00010C057F82C709F42B6D9581CD0600020D1
:1050F00010621046F0BD0000805101001C600008E5
:1051000010B54FF44070FCF791FCFDF7B1FC0121A4
:10511000C802FCF70BFD4FF4C070FEF731FB5020C6
:10512000FEF73AFB7F20FEF71BFB4FF4FA60FFF718
:105130008FF94FF416510248FEF7F4F810BD000045
:105140000048004000BF00BF00BF00BF00BF00BF5D
:1051500000BF00BF00BF00BF704700002DED028BF5
:1051600084B0FFF7CDFFFDF771FAFDF775FEFCF790
:105170009BFDFCF78FFD00204FF4165302466E2175
:105180000090FFF7B9FCFFF713FA00213648FCF74F
:1051900003FC36A0FEF712FC01203A490870FDF727
:1051A0006CFD044621463848FCF7F6FB0120FDF76C
:1051B00064FD0446214601A8FCF7EEFB53E0002005
:1051C0003249088001A8FBF75FFF002846D1FDF7B0
:1051D0005DFA2F480068FBF7CBF941EC180B53EC54
:1051E000182B2CA0FEF7EAFB2C480068FBF7C0F94F
:1051F00041EC180B53EC182B29A0FEF7DFFB2A48D3
:1052000001682AA0FEF7DAFB2B4801682BA0FEF705
:10521000D5FB2E4801682EA0FEF7D0FB3048016870
:1052200030A0FEF7CBFB33480068FBF7A1F941EC57
:10523000180B53EC182B30A0FEF7C0FB3148018847
:1052400031A0FEF7BBFB2EA0FEF7B8FB0120FDF757
:1052500014FD0446214601A8FCF79EFB2D4800786A
:10526000401C2C490870AAE7AC0200200A0A5379B6
:105270007374656D20496E697420446F6E65210AF0
:10528000000000001100002018060020120000207D
:10529000E00000202A433A2025660A00E4000020AE
:1052A000483A2025660A0000F40000206C75783A20
:1052B0002025640A00000000140100207261696E5C
:1052C00053756D3A2025640A000000000C0100208F
:1052D00077696E6453706565643A2025640A00003E
:1052E0000001002077696E644469723A2025640ADF
:1052F0000000000018010020766F6C743A202566CB
:105300000A000000140000207273743A2025640A19
:10531000000000007000002010B5FFF78FFC1D4852
:1053200090ED000AF2EE040A20EE200ABCEEC00A5C
:1053300010EE100A18490880184890ED000AF2EEA5
:10534000040A20EE200ABCEEC00A10EE100A4880C3
:1053500013480088888013480088C8801248008855
:105360000881124800884881114890ED000AF2EE49
:10537000040A20EE200ABCEEC00A10EE100AC88112
:105380000846808920B100200649086002498881CA
:1053900010BD0000E0000020980D0020E400002077
:1053A000F4000020140100200C0100200001002066
:1053B000180100202DE9FC4F01464FF03C09086818
:1053C00090FBF9F0D1F80490484448604FF03C0954
:1053D000086890FBF9FA09FB1A00086008680028C1
:1053E00005DA08683C3008604868401E48604FF0A5
:1053F0003C09486890FBF9F0D1F80890484488606F
:105400004FF03C09486890FBF9FA09FB1A00486024
:105410004868002805DA48683C3048608868401EC3
:1054200088604FF01809886890FBF9F3886890FB52
:10543000F9FA09FB1A0088608868002803DA88688E
:10544000183088605B1E4FF00C09086990FBF9F07A
:10545000D1F81490484448614FF00C09086990FB5A
:10546000F9FA09FB1A0008610869002805DA0869D9
:105470000C3008614869401E4861C868401E0344FA
:1054800042E00869401E0861002804DA4869401EAD
:1054900048610B200861D1F8149009F26C704FEA52
:1054A000E07900EB99794FEAA909A0EB8909B9F1F4
:1054B000000F1CD1D1F8149009F26C794FF0640AF6
:1054C00099FBFAFB0AFB1B99B9F1000F0CD1D1F83B
:1054D000149009F26C794FF4C87A99FBFAFB0AFB35
:1054E0001B99B9F1000F02D14FF0010901E04FF013
:1054F000000909EB4909DFF878A30AEB0919D1F88B
:1055000010A059F82A904B44002BBADB43E0D1F8A5
:10551000149009F26C704FEAE07900EB99794FEA48
:10552000A909A0EB8909B9F1000F1CD1D1F8149099
:1055300009F26C794FF0640A99FBFAFB0AFB1B999C
:10554000B9F1000F0CD1D1F8149009F26C794FF435
:10555000C87A99FBFAFB0AFB1B99B9F1000F02D13B
:105560004FF0010901E04FF0000909EB4909DFF8AC
:1055700000A30AEB0919D1F810A059F82A90A3EB5F
:1055800009030869401C08610C2804D10020086147
:105590004869401C4861D1F8149009F26C704FEAD8
:1055A000E07900EB99794FEAA909A0EB8909B9F1F3
:1055B000000F1CD1D1F8149009F26C794FF0640AF5
:1055C00099FBFAFB0AFB1B99B9F1000F0CD1D1F83A
:1055D000149009F26C794FF4C87A99FBFAFB0AFB34
:1055E0001B99B9F1000F02D14FF0010901E04FF012
:1055F000000909EB4909DFF878A20AEB0919D1F88B
:1056000010A059F82A90994581DD581CC86040F2D5
:10561000B274A4F26C70D1F81490814503DA4FF0A3
:10562000FF30BDE8FC8F002500BF0026486900F26E
:105630006C72101BDFF83C92484500DD761C101B95
:1056400040F26D1900FB09F3101B6FF00049A9EB44
:1056500003094FEAE07A00EB9A7A4FF0010B0BEB6B
:10566000AA0AD14501DA701C06464FEAE27A02EB3B
:105670009A7A4FEAAA0AA2EB8A0A0192BAF1000FBB
:1056800016D091464FEAE27A02EB9A7A4FEAAA0ADA
:10569000A2EB8A0A20464FEAE47B04EB9B7B4FEAAD
:1056A000AB0BA4EB8B0BDA4502DA4FF0010B01E0F8
:1056B0004FF0000BA2EB040A4FEAEA7ECDF800A0FF
:1056C0000AEB9E7A0BEBAA0A5344101B4FF06409B5
:1056D00090FBF9F092FBF9FA09FB1A29B9F1000FD6
:1056E00010D04FF0640992FBF9FA09FB1A294FF028
:1056F000640A94FBFAFB0AFB1B4AD14502DA4FF01D
:10570000010901E04FF0000948441B1A101B4FF437
:10571000C87990FBF9F092FBF9FA09FB1A29B9F163
:10572000000F10D04FF4C87992FBF9FA09FB1A293F
:105730004FF4C87A94FBFAFB0AFB1B4AD14502DA04
:105740004FF0010901E04FF00009484403440027ED
:10575000BC462DE010464FEAE27902EB99794FEA18
:10576000A909A2EB8909B9F1000F14D14FF064091E
:1057700092FBF9FA09FB1A29B9F1000F08D14FF48D
:10578000C87992FBF9FA09FB1A29B9F1000F02D185
:105790004FF0010901E04FF0000909EB4909DFF87A
:1057A000D0A00AEB091959F82C904F440CF1010CC8
:1057B00008696045CEDCC868401E0744D819002837
:1057C00000DA761C3B44CF61181D4FF0070990FBAF
:1057D000F9FA09FB1A008861D1E90109C9EB091935
:1057E00000EB8900C0EB0010D1F8009009EB8005B8
:1057F0006FF00040401BDFF8809090FBF9F098427A
:1058000000DA761C40F2A320584305EBC0151B4874
:105810000068002807DD194800686FF00049A9EB0F
:105820000000A84208DB15480068002805DA134884
:1058300000684042854200DA761C10480068054442
:10584000086A18B10E48D0F8008001E04FF0000857
:10585000A84500DD761CA5EB080516B14FF0FF301A
:10586000DFE6AD4202D04FF0FF30DAE62846D8E658
:105870001C6000087CC6590080510100C400002053
:10588000C00000202DE9FC4104460D4616461F4687
:105890002048844204D101210846FCF747F92EE054
:1058A0001D48844204D101210220FCF73FF926E083
:1058B0001A48844204D101210420FCF737F91EE084
:1058C0001748844204D101210820FCF72FF916E083
:1058D0001448844204D101211020FCF727F90EE07E
:1058E0001148844204D101212020FCF71FF906E071
:1058F0000E48844203D101214020FCF717F900959E
:105900008DF804608DF8057069462046FBF748FD68
:10591000BDE8FC8100000240000402400008024093
:10592000000C024000100240001402400018024027
:10593000014621B1012904D0072906D103E0002046
:1059400005E0022003E0062001E0042000BF00BFC4
:1059500070470146092903DC01F13000C0B27047ED
:105960000A2905DB0F2903DC01F13700C0B2F6E795
:105970003020F4E70146302905DB392903DCA1F1A9
:105980003000C0B27047412905DB462903DCA1F194
:105990003700C0B2F6E7FF20F4E710B5024600205A
:1059A00003E012F8014B2318D8B20B1EA1F1010439
:1059B000A1B2F6D14342D8B210BD000070B5024684
:1059C0000C46FF25FF2309E012F8010B80EA0301D2
:1059D0000648405C80EA05030548455C201EA4F1AA
:1059E0000106B4B2F0D143EA052070BD7C60000826
:1059F0007C61000870B505460C4635B1012240F2C5
:105A000025510C48FDF711FE05E0002240F225511A
:105A10000848FDF70AFE34B1012240F2277105481B
:105A2000FDF703FE05E0002240F227710148FDF773
:105A3000FCFD70BD0014014010B500214FF0804006
:105A4000FDF723F910BD10B500214FF08040FDF7A0
:105A5000A5F901218807FDF718F910BD38B5002513
:105A6000684600F045F94248007800286ED00128C9
:105A700002D0022879D146E0FFF7E5FF9DF800004B
:105A80003A2805D100203B4908703B49088039E09D
:105A90009DF800000D2803D102203549087031E03F
:105AA0009DF80000FFF766FF04463248007810B109
:105AB000012826D114E030480088FF280ADC20079E
:105AC000000E2E4909682C4A128888540120294961
:105AD000087016E0002026490870FFF7ADFF10E0BF
